{
  "_format": "hh-sol-artifact-1",
  "contractName": "ERC1155PresetMinterPauser",
  "sourceName": "@openzeppelin/contracts/token/ERC1155/presets/ERC1155PresetMinterPauser.sol",
  "abi": [
    {
      "inputs": [
        {
          "internalType": "string",
          "name": "uri",
          "type": "string"
        }
      ],
      "stateMutability": "nonpayable",
      "type": "constructor"
    },
    {
      "anonymous": false,
      "inputs": [
        {
          "indexed": true,
          "internalType": "address",
          "name": "account",
          "type": "address"
        },
        {
          "indexed": true,
          "internalType": "address",
          "name": "operator",
          "type": "address"
        },
        {
          "indexed": false,
          "internalType": "bool",
          "name": "approved",
          "type": "bool"
        }
      ],
      "name": "ApprovalForAll",
      "type": "event"
    },
    {
      "anonymous": false,
      "inputs": [
        {
          "indexed": false,
          "internalType": "address",
          "name": "account",
          "type": "address"
        }
      ],
      "name": "Paused",
      "type": "event"
    },
    {
      "anonymous": false,
      "inputs": [
        {
          "indexed": true,
          "internalType": "bytes32",
          "name": "role",
          "type": "bytes32"
        },
        {
          "indexed": true,
          "internalType": "bytes32",
          "name": "previousAdminRole",
          "type": "bytes32"
        },
        {
          "indexed": true,
          "internalType": "bytes32",
          "name": "newAdminRole",
          "type": "bytes32"
        }
      ],
      "name": "RoleAdminChanged",
      "type": "event"
    },
    {
      "anonymous": false,
      "inputs": [
        {
          "indexed": true,
          "internalType": "bytes32",
          "name": "role",
          "type": "bytes32"
        },
        {
          "indexed": true,
          "internalType": "address",
          "name": "account",
          "type": "address"
        },
        {
          "indexed": true,
          "internalType": "address",
          "name": "sender",
          "type": "address"
        }
      ],
      "name": "RoleGranted",
      "type": "event"
    },
    {
      "anonymous": false,
      "inputs": [
        {
          "indexed": true,
          "internalType": "bytes32",
          "name": "role",
          "type": "bytes32"
        },
        {
          "indexed": true,
          "internalType": "address",
          "name": "account",
          "type": "address"
        },
        {
          "indexed": true,
          "internalType": "address",
          "name": "sender",
          "type": "address"
        }
      ],
      "name": "RoleRevoked",
      "type": "event"
    },
    {
      "anonymous": false,
      "inputs": [
        {
          "indexed": true,
          "internalType": "address",
          "name": "operator",
          "type": "address"
        },
        {
          "indexed": true,
          "internalType": "address",
          "name": "from",
          "type": "address"
        },
        {
          "indexed": true,
          "internalType": "address",
          "name": "to",
          "type": "address"
        },
        {
          "indexed": false,
          "internalType": "uint256[]",
          "name": "ids",
          "type": "uint256[]"
        },
        {
          "indexed": false,
          "internalType": "uint256[]",
          "name": "values",
          "type": "uint256[]"
        }
      ],
      "name": "TransferBatch",
      "type": "event"
    },
    {
      "anonymous": false,
      "inputs": [
        {
          "indexed": true,
          "internalType": "address",
          "name": "operator",
          "type": "address"
        },
        {
          "indexed": true,
          "internalType": "address",
          "name": "from",
          "type": "address"
        },
        {
          "indexed": true,
          "internalType": "address",
          "name": "to",
          "type": "address"
        },
        {
          "indexed": false,
          "internalType": "uint256",
          "name": "id",
          "type": "uint256"
        },
        {
          "indexed": false,
          "internalType": "uint256",
          "name": "value",
          "type": "uint256"
        }
      ],
      "name": "TransferSingle",
      "type": "event"
    },
    {
      "anonymous": false,
      "inputs": [
        {
          "indexed": false,
          "internalType": "string",
          "name": "value",
          "type": "string"
        },
        {
          "indexed": true,
          "internalType": "uint256",
          "name": "id",
          "type": "uint256"
        }
      ],
      "name": "URI",
      "type": "event"
    },
    {
      "anonymous": false,
      "inputs": [
        {
          "indexed": false,
          "internalType": "address",
          "name": "account",
          "type": "address"
        }
      ],
      "name": "Unpaused",
      "type": "event"
    },
    {
      "inputs": [],
      "name": "DEFAULT_ADMIN_ROLE",
      "outputs": [
        {
          "internalType": "bytes32",
          "name": "",
          "type": "bytes32"
        }
      ],
      "stateMutability": "view",
      "type": "function"
    },
    {
      "inputs": [],
      "name": "MINTER_ROLE",
      "outputs": [
        {
          "internalType": "bytes32",
          "name": "",
          "type": "bytes32"
        }
      ],
      "stateMutability": "view",
      "type": "function"
    },
    {
      "inputs": [],
      "name": "PAUSER_ROLE",
      "outputs": [
        {
          "internalType": "bytes32",
          "name": "",
          "type": "bytes32"
        }
      ],
      "stateMutability": "view",
      "type": "function"
    },
    {
      "inputs": [
        {
          "internalType": "address",
          "name": "account",
          "type": "address"
        },
        {
          "internalType": "uint256",
          "name": "id",
          "type": "uint256"
        }
      ],
      "name": "balanceOf",
      "outputs": [
        {
          "internalType": "uint256",
          "name": "",
          "type": "uint256"
        }
      ],
      "stateMutability": "view",
      "type": "function"
    },
    {
      "inputs": [
        {
          "internalType": "address[]",
          "name": "accounts",
          "type": "address[]"
        },
        {
          "internalType": "uint256[]",
          "name": "ids",
          "type": "uint256[]"
        }
      ],
      "name": "balanceOfBatch",
      "outputs": [
        {
          "internalType": "uint256[]",
          "name": "",
          "type": "uint256[]"
        }
      ],
      "stateMutability": "view",
      "type": "function"
    },
    {
      "inputs": [
        {
          "internalType": "address",
          "name": "account",
          "type": "address"
        },
        {
          "internalType": "uint256",
          "name": "id",
          "type": "uint256"
        },
        {
          "internalType": "uint256",
          "name": "value",
          "type": "uint256"
        }
      ],
      "name": "burn",
      "outputs": [],
      "stateMutability": "nonpayable",
      "type": "function"
    },
    {
      "inputs": [
        {
          "internalType": "address",
          "name": "account",
          "type": "address"
        },
        {
          "internalType": "uint256[]",
          "name": "ids",
          "type": "uint256[]"
        },
        {
          "internalType": "uint256[]",
          "name": "values",
          "type": "uint256[]"
        }
      ],
      "name": "burnBatch",
      "outputs": [],
      "stateMutability": "nonpayable",
      "type": "function"
    },
    {
      "inputs": [
        {
          "internalType": "bytes32",
          "name": "role",
          "type": "bytes32"
        }
      ],
      "name": "getRoleAdmin",
      "outputs": [
        {
          "internalType": "bytes32",
          "name": "",
          "type": "bytes32"
        }
      ],
      "stateMutability": "view",
      "type": "function"
    },
    {
      "inputs": [
        {
          "internalType": "bytes32",
          "name": "role",
          "type": "bytes32"
        },
        {
          "internalType": "uint256",
          "name": "index",
          "type": "uint256"
        }
      ],
      "name": "getRoleMember",
      "outputs": [
        {
          "internalType": "address",
          "name": "",
          "type": "address"
        }
      ],
      "stateMutability": "view",
      "type": "function"
    },
    {
      "inputs": [
        {
          "internalType": "bytes32",
          "name": "role",
          "type": "bytes32"
        }
      ],
      "name": "getRoleMemberCount",
      "outputs": [
        {
          "internalType": "uint256",
          "name": "",
          "type": "uint256"
        }
      ],
      "stateMutability": "view",
      "type": "function"
    },
    {
      "inputs": [
        {
          "internalType": "bytes32",
          "name": "role",
          "type": "bytes32"
        },
        {
          "internalType": "address",
          "name": "account",
          "type": "address"
        }
      ],
      "name": "grantRole",
      "outputs": [],
      "stateMutability": "nonpayable",
      "type": "function"
    },
    {
      "inputs": [
        {
          "internalType": "bytes32",
          "name": "role",
          "type": "bytes32"
        },
        {
          "internalType": "address",
          "name": "account",
          "type": "address"
        }
      ],
      "name": "hasRole",
      "outputs": [
        {
          "internalType": "bool",
          "name": "",
          "type": "bool"
        }
      ],
      "stateMutability": "view",
      "type": "function"
    },
    {
      "inputs": [
        {
          "internalType": "address",
          "name": "account",
          "type": "address"
        },
        {
          "internalType": "address",
          "name": "operator",
          "type": "address"
        }
      ],
      "name": "isApprovedForAll",
      "outputs": [
        {
          "internalType": "bool",
          "name": "",
          "type": "bool"
        }
      ],
      "stateMutability": "view",
      "type": "function"
    },
    {
      "inputs": [
        {
          "internalType": "address",
          "name": "to",
          "type": "address"
        },
        {
          "internalType": "uint256",
          "name": "id",
          "type": "uint256"
        },
        {
          "internalType": "uint256",
          "name": "amount",
          "type": "uint256"
        },
        {
          "internalType": "bytes",
          "name": "data",
          "type": "bytes"
        }
      ],
      "name": "mint",
      "outputs": [],
      "stateMutability": "nonpayable",
      "type": "function"
    },
    {
      "inputs": [
        {
          "internalType": "address",
          "name": "to",
          "type": "address"
        },
        {
          "internalType": "uint256[]",
          "name": "ids",
          "type": "uint256[]"
        },
        {
          "internalType": "uint256[]",
          "name": "amounts",
          "type": "uint256[]"
        },
        {
          "internalType": "bytes",
          "name": "data",
          "type": "bytes"
        }
      ],
      "name": "mintBatch",
      "outputs": [],
      "stateMutability": "nonpayable",
      "type": "function"
    },
    {
      "inputs": [],
      "name": "pause",
      "outputs": [],
      "stateMutability": "nonpayable",
      "type": "function"
    },
    {
      "inputs": [],
      "name": "paused",
      "outputs": [
        {
          "internalType": "bool",
          "name": "",
          "type": "bool"
        }
      ],
      "stateMutability": "view",
      "type": "function"
    },
    {
      "inputs": [
        {
          "internalType": "bytes32",
          "name": "role",
          "type": "bytes32"
        },
        {
          "internalType": "address",
          "name": "account",
          "type": "address"
        }
      ],
      "name": "renounceRole",
      "outputs": [],
      "stateMutability": "nonpayable",
      "type": "function"
    },
    {
      "inputs": [
        {
          "internalType": "bytes32",
          "name": "role",
          "type": "bytes32"
        },
        {
          "internalType": "address",
          "name": "account",
          "type": "address"
        }
      ],
      "name": "revokeRole",
      "outputs": [],
      "stateMutability": "nonpayable",
      "type": "function"
    },
    {
      "inputs": [
        {
          "internalType": "address",
          "name": "from",
          "type": "address"
        },
        {
          "internalType": "address",
          "name": "to",
          "type": "address"
        },
        {
          "internalType": "uint256[]",
          "name": "ids",
          "type": "uint256[]"
        },
        {
          "internalType": "uint256[]",
          "name": "amounts",
          "type": "uint256[]"
        },
        {
          "internalType": "bytes",
          "name": "data",
          "type": "bytes"
        }
      ],
      "name": "safeBatchTransferFrom",
      "outputs": [],
      "stateMutability": "nonpayable",
      "type": "function"
    },
    {
      "inputs": [
        {
          "internalType": "address",
          "name": "from",
          "type": "address"
        },
        {
          "internalType": "address",
          "name": "to",
          "type": "address"
        },
        {
          "internalType": "uint256",
          "name": "id",
          "type": "uint256"
        },
        {
          "internalType": "uint256",
          "name": "amount",
          "type": "uint256"
        },
        {
          "internalType": "bytes",
          "name": "data",
          "type": "bytes"
        }
      ],
      "name": "safeTransferFrom",
      "outputs": [],
      "stateMutability": "nonpayable",
      "type": "function"
    },
    {
      "inputs": [
        {
          "internalType": "address",
          "name": "operator",
          "type": "address"
        },
        {
          "internalType": "bool",
          "name": "approved",
          "type": "bool"
        }
      ],
      "name": "setApprovalForAll",
      "outputs": [],
      "stateMutability": "nonpayable",
      "type": "function"
    },
    {
      "inputs": [
        {
          "internalType": "bytes4",
          "name": "interfaceId",
          "type": "bytes4"
        }
      ],
      "name": "supportsInterface",
      "outputs": [
        {
          "internalType": "bool",
          "name": "",
          "type": "bool"
        }
      ],
      "stateMutability": "view",
      "type": "function"
    },
    {
      "inputs": [],
      "name": "unpause",
      "outputs": [],
      "stateMutability": "nonpayable",
      "type": "function"
    },
    {
      "inputs": [
        {
          "internalType": "uint256",
          "name": "",
          "type": "uint256"
        }
      ],
      "name": "uri",
      "outputs": [
        {
          "internalType": "string",
          "name": "",
          "type": "string"
        }
      ],
      "stateMutability": "view",
      "type": "function"
    }
  ],
  "bytecode": "0x60806040523480156200001157600080fd5b506040516200546538038062005465833981810160405281019062000037919062000546565b8062000049816200011260201b60201c565b506000600560006101000a81548160ff021916908315150217905550620000896000801b6200007d6200012760201b60201c565b6200012f60201b60201c565b620000ca7f9f2df0fed2c77648de5860a4cc508cd0818c85b8b8a1ab4ceeef8d981c8956a6620000be6200012760201b60201c565b6200012f60201b60201c565b6200010b7f65d7a28e3265b37a6474929f336521b332c1681b933f6cb9f3376673440d862a620000ff6200012760201b60201c565b6200012f60201b60201c565b50620008c9565b8060049081620001239190620007e2565b5050565b600033905090565b6200014182826200014560201b60201c565b5050565b6200015782826200018360201b60201c565b6200017e81600160008581526020019081526020016000206200027460201b90919060201c565b505050565b620001958282620002ac60201b60201c565b6200027057600160008084815260200190815260200160002060000160008373ffffffffffffffffffffffffffffffffffffffff1673ffffffffffffffffffffffffffffffffffffffff16815260200190815260200160002060006101000a81548160ff021916908315150217905550620002156200012760201b60201c565b73ffffffffffffffffffffffffffffffffffffffff168173ffffffffffffffffffffffffffffffffffffffff16837f2f8788117e7eff1d82e926ec794901d17c78024a50270940304540a733656f0d60405160405180910390a45b5050565b6000620002a4836000018373ffffffffffffffffffffffffffffffffffffffff1660001b6200031660201b60201c565b905092915050565b600080600084815260200190815260200160002060000160008373ffffffffffffffffffffffffffffffffffffffff1673ffffffffffffffffffffffffffffffffffffffff16815260200190815260200160002060009054906101000a900460ff16905092915050565b60006200032a83836200039060201b60201c565b620003855782600001829080600181540180825580915050600190039060005260206000200160009091909190915055826000018054905083600101600084815260200190815260200160002081905550600190506200038a565b600090505b92915050565b600080836001016000848152602001908152602001600020541415905092915050565b6000604051905090565b600080fd5b600080fd5b600080fd5b600080fd5b6000601f19601f8301169050919050565b7f4e487b7100000000000000000000000000000000000000000000000000000000600052604160045260246000fd5b6200041c82620003d1565b810181811067ffffffffffffffff821117156200043e576200043d620003e2565b5b80604052505050565b600062000453620003b3565b905062000461828262000411565b919050565b600067ffffffffffffffff821115620004845762000483620003e2565b5b6200048f82620003d1565b9050602081019050919050565b60005b83811015620004bc5780820151818401526020810190506200049f565b60008484015250505050565b6000620004df620004d98462000466565b62000447565b905082815260208101848484011115620004fe57620004fd620003cc565b5b6200050b8482856200049c565b509392505050565b600082601f8301126200052b576200052a620003c7565b5b81516200053d848260208601620004c8565b91505092915050565b6000602082840312156200055f576200055e620003bd565b5b600082015167ffffffffffffffff81111562000580576200057f620003c2565b5b6200058e8482850162000513565b91505092915050565b600081519050919050565b7f4e487b7100000000000000000000000000000000000000000000000000000000600052602260045260246000fd5b60006002820490506001821680620005ea57607f821691505b6020821081036200060057620005ff620005a2565b5b50919050565b60008190508160005260206000209050919050565b60006020601f8301049050919050565b600082821b905092915050565b6000600883026200066a7fffffffffffffffffffffffffffffffffffffffffffffffffffffffffffffffff826200062b565b6200067686836200062b565b95508019841693508086168417925050509392505050565b6000819050919050565b6000819050919050565b6000620006c3620006bd620006b7846200068e565b62000698565b6200068e565b9050919050565b6000819050919050565b620006df83620006a2565b620006f7620006ee82620006ca565b84845462000638565b825550505050565b600090565b6200070e620006ff565b6200071b818484620006d4565b505050565b5b8181101562000743576200073760008262000704565b60018101905062000721565b5050565b601f82111562000792576200075c8162000606565b62000767846200061b565b8101602085101562000777578190505b6200078f62000786856200061b565b83018262000720565b50505b505050565b600082821c905092915050565b6000620007b76000198460080262000797565b1980831691505092915050565b6000620007d28383620007a4565b9150826002028217905092915050565b620007ed8262000597565b67ffffffffffffffff811115620008095762000808620003e2565b5b620008158254620005d1565b6200082282828562000747565b600060209050601f8311600181146200085a576000841562000845578287015190505b620008518582620007c4565b865550620008c1565b601f1984166200086a8662000606565b60005b8281101562000894578489015182556001820191506020850194506020810190506200086d565b86831015620008b45784890151620008b0601f891682620007a4565b8355505b6001600288020188555050505b505050505050565b614b8c80620008d96000396000f3fe608060405234801561001057600080fd5b50600436106101725760003560e01c8063731133e9116100de578063ca15c87311610097578063e63ab1e911610071578063e63ab1e914610445578063e985e9c514610463578063f242432a14610493578063f5298aca146104af57610172565b8063ca15c873146103db578063d53913931461040b578063d547741f1461042957610172565b8063731133e91461031b5780638456cb59146103375780639010d07c1461034157806391d1485414610371578063a217fddf146103a1578063a22cb465146103bf57610172565b80632f2ff15d116101305780632f2ff15d1461026f57806336568abe1461028b5780633f4ba83a146102a75780634e1273f4146102b15780635c975abb146102e15780636b20c454146102ff57610172565b8062fdd58e1461017757806301ffc9a7146101a75780630e89341c146101d75780631f7fdffa14610207578063248a9ca3146102235780632eb2c2d614610253575b600080fd5b610191600480360381019061018c9190612f51565b6104cb565b60405161019e9190612fa0565b60405180910390f35b6101c160048036038101906101bc9190613013565b610594565b6040516101ce919061305b565b60405180910390f35b6101f160048036038101906101ec9190613076565b6105a6565b6040516101fe9190613133565b60405180910390f35b610221600480360381019061021c9190613352565b61063a565b005b61023d60048036038101906102389190613443565b6106bc565b60405161024a919061347f565b60405180910390f35b61026d6004803603810190610268919061349a565b6106db565b005b61028960048036038101906102849190613569565b61077c565b005b6102a560048036038101906102a09190613569565b61079d565b005b6102af610820565b005b6102cb60048036038101906102c6919061366c565b61089a565b6040516102d891906137a2565b60405180910390f35b6102e96109b3565b6040516102f6919061305b565b60405180910390f35b610319600480360381019061031491906137c4565b6109ca565b005b6103356004803603810190610330919061384f565b610a67565b005b61033f610ae9565b005b61035b600480360381019061035691906138d2565b610b63565b6040516103689190613921565b60405180910390f35b61038b60048036038101906103869190613569565b610b92565b604051610398919061305b565b60405180910390f35b6103a9610bfc565b6040516103b6919061347f565b60405180910390f35b6103d960048036038101906103d49190613968565b610c03565b005b6103f560048036038101906103f09190613443565b610c19565b6040516104029190612fa0565b60405180910390f35b610413610c3d565b604051610420919061347f565b60405180910390f35b610443600480360381019061043e9190613569565b610c61565b005b61044d610c82565b60405161045a919061347f565b60405180910390f35b61047d600480360381019061047891906139a8565b610ca6565b60405161048a919061305b565b60405180910390f35b6104ad60048036038101906104a891906139e8565b610d3a565b005b6104c960048036038101906104c49190613a7f565b610ddb565b005b60008073ffffffffffffffffffffffffffffffffffffffff168373ffffffffffffffffffffffffffffffffffffffff160361053b576040517f08c379a000000000000000000000000000000000000000000000000000000000815260040161053290613b44565b60405180910390fd5b6002600083815260200190815260200160002060008473ffffffffffffffffffffffffffffffffffffffff1673ffffffffffffffffffffffffffffffffffffffff16815260200190815260200160002054905092915050565b600061059f82610e78565b9050919050565b6060600480546105b590613b93565b80601f01602080910402602001604051908101604052809291908181526020018280546105e190613b93565b801561062e5780601f106106035761010080835404028352916020019161062e565b820191906000526020600020905b81548152906001019060200180831161061157829003601f168201915b50505050509050919050565b61066b7f9f2df0fed2c77648de5860a4cc508cd0818c85b8b8a1ab4ceeef8d981c8956a6610666610f5a565b610b92565b6106aa576040517f08c379a00000000000000000000000000000000000000000000000000000000081526004016106a190613c36565b60405180910390fd5b6106b684848484610f62565b50505050565b6000806000838152602001908152602001600020600101549050919050565b6106e3610f5a565b73ffffffffffffffffffffffffffffffffffffffff168573ffffffffffffffffffffffffffffffffffffffff161480610729575061072885610723610f5a565b610ca6565b5b610768576040517f08c379a000000000000000000000000000000000000000000000000000000000815260040161075f90613cc8565b60405180910390fd5b610775858585858561118f565b5050505050565b610785826106bc565b61078e816114b3565b61079883836114c7565b505050565b6107a5610f5a565b73ffffffffffffffffffffffffffffffffffffffff168173ffffffffffffffffffffffffffffffffffffffff1614610812576040517f08c379a000000000000000000000000000000000000000000000000000000000815260040161080990613d5a565b60405180910390fd5b61081c82826114fb565b5050565b6108517f65d7a28e3265b37a6474929f336521b332c1681b933f6cb9f3376673440d862a61084c610f5a565b610b92565b610890576040517f08c379a000000000000000000000000000000000000000000000000000000000815260040161088790613dec565b60405180910390fd5b61089861152f565b565b606081518351146108e0576040517f08c379a00000000000000000000000000000000000000000000000000000000081526004016108d790613e7e565b60405180910390fd5b6000835167ffffffffffffffff8111156108fd576108fc61315a565b5b60405190808252806020026020018201604052801561092b5781602001602082028036833780820191505090505b50905060005b84518110156109a8576109788582815181106109505761094f613e9e565b5b602002602001015185838151811061096b5761096a613e9e565b5b60200260200101516104cb565b82828151811061098b5761098a613e9e565b5b602002602001018181525050806109a190613efc565b9050610931565b508091505092915050565b6000600560009054906101000a900460ff16905090565b6109d2610f5a565b73ffffffffffffffffffffffffffffffffffffffff168373ffffffffffffffffffffffffffffffffffffffff161480610a185750610a1783610a12610f5a565b610ca6565b5b610a57576040517f08c379a0000000000000000000000000000000000000000000000000000000008152600401610a4e90613cc8565b60405180910390fd5b610a62838383611592565b505050565b610a987f9f2df0fed2c77648de5860a4cc508cd0818c85b8b8a1ab4ceeef8d981c8956a6610a93610f5a565b610b92565b610ad7576040517f08c379a0000000000000000000000000000000000000000000000000000000008152600401610ace90613c36565b60405180910390fd5b610ae384848484611862565b50505050565b610b1a7f65d7a28e3265b37a6474929f336521b332c1681b933f6cb9f3376673440d862a610b15610f5a565b610b92565b610b59576040517f08c379a0000000000000000000000000000000000000000000000000000000008152600401610b5090613fb6565b60405180910390fd5b610b61611a13565b565b6000610b8a8260016000868152602001908152602001600020611a7690919063ffffffff16565b905092915050565b600080600084815260200190815260200160002060000160008373ffffffffffffffffffffffffffffffffffffffff1673ffffffffffffffffffffffffffffffffffffffff16815260200190815260200160002060009054906101000a900460ff16905092915050565b6000801b81565b610c15610c0e610f5a565b8383611a90565b5050565b6000610c3660016000848152602001908152602001600020611bfc565b9050919050565b7f9f2df0fed2c77648de5860a4cc508cd0818c85b8b8a1ab4ceeef8d981c8956a681565b610c6a826106bc565b610c73816114b3565b610c7d83836114fb565b505050565b7f65d7a28e3265b37a6474929f336521b332c1681b933f6cb9f3376673440d862a81565b6000600360008473ffffffffffffffffffffffffffffffffffffffff1673ffffffffffffffffffffffffffffffffffffffff16815260200190815260200160002060008373ffffffffffffffffffffffffffffffffffffffff1673ffffffffffffffffffffffffffffffffffffffff16815260200190815260200160002060009054906101000a900460ff16905092915050565b610d42610f5a565b73ffffffffffffffffffffffffffffffffffffffff168573ffffffffffffffffffffffffffffffffffffffff161480610d885750610d8785610d82610f5a565b610ca6565b5b610dc7576040517f08c379a0000000000000000000000000000000000000000000000000000000008152600401610dbe90613cc8565b60405180910390fd5b610dd48585858585611c11565b5050505050565b610de3610f5a565b73ffffffffffffffffffffffffffffffffffffffff168373ffffffffffffffffffffffffffffffffffffffff161480610e295750610e2883610e23610f5a565b610ca6565b5b610e68576040517f08c379a0000000000000000000000000000000000000000000000000000000008152600401610e5f90613cc8565b60405180910390fd5b610e73838383611eaf565b505050565b60007fd9b67a26000000000000000000000000000000000000000000000000000000007bffffffffffffffffffffffffffffffffffffffffffffffffffffffff1916827bffffffffffffffffffffffffffffffffffffffffffffffffffffffff19161480610f4357507f0e89341c000000000000000000000000000000000000000000000000000000007bffffffffffffffffffffffffffffffffffffffffffffffffffffffff1916827bffffffffffffffffffffffffffffffffffffffffffffffffffffffff1916145b80610f535750610f52826120f7565b5b9050919050565b600033905090565b600073ffffffffffffffffffffffffffffffffffffffff168473ffffffffffffffffffffffffffffffffffffffff1603610fd1576040517f08c379a0000000000000000000000000000000000000000000000000000000008152600401610fc890614048565b60405180910390fd5b8151835114611015576040517f08c379a000000000000000000000000000000000000000000000000000000000815260040161100c906140da565b60405180910390fd5b600061101f610f5a565b905061103081600087878787612171565b60005b84518110156110ea5783818151811061104f5761104e613e9e565b5b60200260200101516002600087848151811061106e5761106d613e9e565b5b6020026020010151815260200190815260200160002060008873ffffffffffffffffffffffffffffffffffffffff1673ffffffffffffffffffffffffffffffffffffffff16815260200190815260200160002060008282546110d091906140fa565b9250508190555080806110e290613efc565b915050611033565b508473ffffffffffffffffffffffffffffffffffffffff16600073ffffffffffffffffffffffffffffffffffffffff168273ffffffffffffffffffffffffffffffffffffffff167f4a39dc06d4c0dbc64b70af90fd698a233a518aa5d07e595d983b8c0526c8f7fb878760405161116292919061412e565b60405180910390a461117981600087878787612187565b6111888160008787878761218f565b5050505050565b81518351146111d3576040517f08c379a00000000000000000000000000000000000000000000000000000000081526004016111ca906140da565b60405180910390fd5b600073ffffffffffffffffffffffffffffffffffffffff168473ffffffffffffffffffffffffffffffffffffffff1603611242576040517f08c379a0000000000000000000000000000000000000000000000000000000008152600401611239906141d7565b60405180910390fd5b600061124c610f5a565b905061125c818787878787612171565b60005b845181101561141057600085828151811061127d5761127c613e9e565b5b60200260200101519050600085838151811061129c5761129b613e9e565b5b6020026020010151905060006002600084815260200190815260200160002060008b73ffffffffffffffffffffffffffffffffffffffff1673ffffffffffffffffffffffffffffffffffffffff1681526020019081526020016000205490508181101561133e576040517f08c379a000000000000000000000000000000000000000000000000000000000815260040161133590614269565b60405180910390fd5b8181036002600085815260200190815260200160002060008c73ffffffffffffffffffffffffffffffffffffffff1673ffffffffffffffffffffffffffffffffffffffff16815260200190815260200160002081905550816002600085815260200190815260200160002060008b73ffffffffffffffffffffffffffffffffffffffff1673ffffffffffffffffffffffffffffffffffffffff16815260200190815260200160002060008282546113f591906140fa565b925050819055505050508061140990613efc565b905061125f565b508473ffffffffffffffffffffffffffffffffffffffff168673ffffffffffffffffffffffffffffffffffffffff168273ffffffffffffffffffffffffffffffffffffffff167f4a39dc06d4c0dbc64b70af90fd698a233a518aa5d07e595d983b8c0526c8f7fb878760405161148792919061412e565b60405180910390a461149d818787878787612187565b6114ab81878787878761218f565b505050505050565b6114c4816114bf610f5a565b612366565b50565b6114d182826123eb565b6114f681600160008581526020019081526020016000206124cb90919063ffffffff16565b505050565b61150582826124fb565b61152a81600160008581526020019081526020016000206125dc90919063ffffffff16565b505050565b61153761260c565b6000600560006101000a81548160ff0219169083151502179055507f5db9ee0a495bf2e6ff9c91a7834c1ba4fdd244a5e8aa4e537bd38aeae4b073aa61157b610f5a565b6040516115889190613921565b60405180910390a1565b600073ffffffffffffffffffffffffffffffffffffffff168373ffffffffffffffffffffffffffffffffffffffff1603611601576040517f08c379a00000000000000000000000000000000000000000000000000000000081526004016115f8906142fb565b60405180910390fd5b8051825114611645576040517f08c379a000000000000000000000000000000000000000000000000000000000815260040161163c906140da565b60405180910390fd5b600061164f610f5a565b905061166f81856000868660405180602001604052806000815250612171565b60005b83518110156117be5760008482815181106116905761168f613e9e565b5b6020026020010151905060008483815181106116af576116ae613e9e565b5b6020026020010151905060006002600084815260200190815260200160002060008973ffffffffffffffffffffffffffffffffffffffff1673ffffffffffffffffffffffffffffffffffffffff16815260200190815260200160002054905081811015611751576040517f08c379a00000000000000000000000000000000000000000000000000000000081526004016117489061438d565b60405180910390fd5b8181036002600085815260200190815260200160002060008a73ffffffffffffffffffffffffffffffffffffffff1673ffffffffffffffffffffffffffffffffffffffff1681526020019081526020016000208190555050505080806117b690613efc565b915050611672565b50600073ffffffffffffffffffffffffffffffffffffffff168473ffffffffffffffffffffffffffffffffffffffff168273ffffffffffffffffffffffffffffffffffffffff167f4a39dc06d4c0dbc64b70af90fd698a233a518aa5d07e595d983b8c0526c8f7fb868660405161183692919061412e565b60405180910390a461185c81856000868660405180602001604052806000815250612187565b50505050565b600073ffffffffffffffffffffffffffffffffffffffff168473ffffffffffffffffffffffffffffffffffffffff16036118d1576040517f08c379a00000000000000000000000000000000000000000000000000000000081526004016118c890614048565b60405180910390fd5b60006118db610f5a565b905060006118e885612655565b905060006118f585612655565b905061190683600089858589612171565b846002600088815260200190815260200160002060008973ffffffffffffffffffffffffffffffffffffffff1673ffffffffffffffffffffffffffffffffffffffff168152602001908152602001600020600082825461196691906140fa565b925050819055508673ffffffffffffffffffffffffffffffffffffffff16600073ffffffffffffffffffffffffffffffffffffffff168473ffffffffffffffffffffffffffffffffffffffff167fc3d58168c5ae7397731d063d5bbf3d657854427343f4c083240f7aacaa2d0f6289896040516119e49291906143ad565b60405180910390a46119fb83600089858589612187565b611a0a836000898989896126cf565b50505050505050565b611a1b6128a6565b6001600560006101000a81548160ff0219169083151502179055507f62e78cea01bee320cd4e420270b5ea74000d11b0c9f74754ebdbfc544b05a258611a5f610f5a565b604051611a6c9190613921565b60405180910390a1565b6000611a8583600001836128f0565b60001c905092915050565b8173ffffffffffffffffffffffffffffffffffffffff168373ffffffffffffffffffffffffffffffffffffffff1603611afe576040517f08c379a0000000000000000000000000000000000000000000000000000000008152600401611af590614448565b60405180910390fd5b80600360008573ffffffffffffffffffffffffffffffffffffffff1673ffffffffffffffffffffffffffffffffffffffff16815260200190815260200160002060008473ffffffffffffffffffffffffffffffffffffffff1673ffffffffffffffffffffffffffffffffffffffff16815260200190815260200160002060006101000a81548160ff0219169083151502179055508173ffffffffffffffffffffffffffffffffffffffff168373ffffffffffffffffffffffffffffffffffffffff167f17307eab39ab6107e8899845ad3d59bd9653f200f220920489ca2b5937696c3183604051611bef919061305b565b60405180910390a3505050565b6000611c0a8260000161291b565b9050919050565b600073ffffffffffffffffffffffffffffffffffffffff168473ffffffffffffffffffffffffffffffffffffffff1603611c80576040517f08c379a0000000000000000000000000000000000000000000000000000000008152600401611c77906141d7565b60405180910390fd5b6000611c8a610f5a565b90506000611c9785612655565b90506000611ca485612655565b9050611cb4838989858589612171565b60006002600088815260200190815260200160002060008a73ffffffffffffffffffffffffffffffffffffffff1673ffffffffffffffffffffffffffffffffffffffff16815260200190815260200160002054905085811015611d4c576040517f08c379a0000000000000000000000000000000000000000000000000000000008152600401611d4390614269565b60405180910390fd5b8581036002600089815260200190815260200160002060008b73ffffffffffffffffffffffffffffffffffffffff1673ffffffffffffffffffffffffffffffffffffffff16815260200190815260200160002081905550856002600089815260200190815260200160002060008a73ffffffffffffffffffffffffffffffffffffffff1673ffffffffffffffffffffffffffffffffffffffff1681526020019081526020016000206000828254611e0391906140fa565b925050819055508773ffffffffffffffffffffffffffffffffffffffff168973ffffffffffffffffffffffffffffffffffffffff168573ffffffffffffffffffffffffffffffffffffffff167fc3d58168c5ae7397731d063d5bbf3d657854427343f4c083240f7aacaa2d0f628a8a604051611e809291906143ad565b60405180910390a4611e96848a8a86868a612187565b611ea4848a8a8a8a8a6126cf565b505050505050505050565b600073ffffffffffffffffffffffffffffffffffffffff168373ffffffffffffffffffffffffffffffffffffffff1603611f1e576040517f08c379a0000000000000000000000000000000000000000000000000000000008152600401611f15906142fb565b60405180910390fd5b6000611f28610f5a565b90506000611f3584612655565b90506000611f4284612655565b9050611f6283876000858560405180602001604052806000815250612171565b60006002600087815260200190815260200160002060008873ffffffffffffffffffffffffffffffffffffffff1673ffffffffffffffffffffffffffffffffffffffff16815260200190815260200160002054905084811015611ffa576040517f08c379a0000000000000000000000000000000000000000000000000000000008152600401611ff19061438d565b60405180910390fd5b8481036002600088815260200190815260200160002060008973ffffffffffffffffffffffffffffffffffffffff1673ffffffffffffffffffffffffffffffffffffffff16815260200190815260200160002081905550600073ffffffffffffffffffffffffffffffffffffffff168773ffffffffffffffffffffffffffffffffffffffff168573ffffffffffffffffffffffffffffffffffffffff167fc3d58168c5ae7397731d063d5bbf3d657854427343f4c083240f7aacaa2d0f6289896040516120c89291906143ad565b60405180910390a46120ee84886000868660405180602001604052806000815250612187565b50505050505050565b60007f5a05180f000000000000000000000000000000000000000000000000000000007bffffffffffffffffffffffffffffffffffffffffffffffffffffffff1916827bffffffffffffffffffffffffffffffffffffffffffffffffffffffff1916148061216a57506121698261292c565b5b9050919050565b61217f8686868686866129a6565b505050505050565b505050505050565b6121ae8473ffffffffffffffffffffffffffffffffffffffff16612a04565b1561235e578373ffffffffffffffffffffffffffffffffffffffff1663bc197c8187878686866040518663ffffffff1660e01b81526004016121f49594939291906144bd565b6020604051808303816000875af192505050801561223057506040513d601f19601f8201168201806040525081019061222d919061453a565b60015b6122d55761223c614574565b806308c379a0036122985750612250614596565b8061225b575061229a565b806040517f08c379a000000000000000000000000000000000000000000000000000000000815260040161228f9190613133565b60405180910390fd5b505b6040517f08c379a00000000000000000000000000000000000000000000000000000000081526004016122cc90614698565b60405180910390fd5b63bc197c8160e01b7bffffffffffffffffffffffffffffffffffffffffffffffffffffffff1916817bffffffffffffffffffffffffffffffffffffffffffffffffffffffff19161461235c576040517f08c379a00000000000000000000000000000000000000000000000000000000081526004016123539061472a565b60405180910390fd5b505b505050505050565b6123708282610b92565b6123e75761237d81612a27565b61238b8360001c6020612a54565b60405160200161239c92919061481e565b6040516020818303038152906040526040517f08c379a00000000000000000000000000000000000000000000000000000000081526004016123de9190613133565b60405180910390fd5b5050565b6123f58282610b92565b6124c757600160008084815260200190815260200160002060000160008373ffffffffffffffffffffffffffffffffffffffff1673ffffffffffffffffffffffffffffffffffffffff16815260200190815260200160002060006101000a81548160ff02191690831515021790555061246c610f5a565b73ffffffffffffffffffffffffffffffffffffffff168173ffffffffffffffffffffffffffffffffffffffff16837f2f8788117e7eff1d82e926ec794901d17c78024a50270940304540a733656f0d60405160405180910390a45b5050565b60006124f3836000018373ffffffffffffffffffffffffffffffffffffffff1660001b612c90565b905092915050565b6125058282610b92565b156125d857600080600084815260200190815260200160002060000160008373ffffffffffffffffffffffffffffffffffffffff1673ffffffffffffffffffffffffffffffffffffffff16815260200190815260200160002060006101000a81548160ff02191690831515021790555061257d610f5a565b73ffffffffffffffffffffffffffffffffffffffff168173ffffffffffffffffffffffffffffffffffffffff16837ff6391f5c32d9c69d2a47ea670b442974b53935d1edc7fd64eb21e047a839171b60405160405180910390a45b5050565b6000612604836000018373ffffffffffffffffffffffffffffffffffffffff1660001b612d00565b905092915050565b6126146109b3565b612653576040517f08c379a000000000000000000000000000000000000000000000000000000000815260040161264a906148a4565b60405180910390fd5b565b60606000600167ffffffffffffffff8111156126745761267361315a565b5b6040519080825280602002602001820160405280156126a25781602001602082028036833780820191505090505b50905082816000815181106126ba576126b9613e9e565b5b60200260200101818152505080915050919050565b6126ee8473ffffffffffffffffffffffffffffffffffffffff16612a04565b1561289e578373ffffffffffffffffffffffffffffffffffffffff1663f23a6e6187878686866040518663ffffffff1660e01b81526004016127349594939291906148c4565b6020604051808303816000875af192505050801561277057506040513d601f19601f8201168201806040525081019061276d919061453a565b60015b6128155761277c614574565b806308c379a0036127d85750612790614596565b8061279b57506127da565b806040517f08c379a00000000000000000000000000000000000000000000000000000000081526004016127cf9190613133565b60405180910390fd5b505b6040517f08c379a000000000000000000000000000000000000000000000000000000000815260040161280c90614698565b60405180910390fd5b63f23a6e6160e01b7bffffffffffffffffffffffffffffffffffffffffffffffffffffffff1916817bffffffffffffffffffffffffffffffffffffffffffffffffffffffff19161461289c576040517f08c379a00000000000000000000000000000000000000000000000000000000081526004016128939061472a565b60405180910390fd5b505b505050505050565b6128ae6109b3565b156128ee576040517f08c379a00000000000000000000000000000000000000000000000000000000081526004016128e59061496a565b60405180910390fd5b565b600082600001828154811061290857612907613e9e565b5b9060005260206000200154905092915050565b600081600001805490509050919050565b60007f7965db0b000000000000000000000000000000000000000000000000000000007bffffffffffffffffffffffffffffffffffffffffffffffffffffffff1916827bffffffffffffffffffffffffffffffffffffffffffffffffffffffff1916148061299f575061299e82612e14565b5b9050919050565b6129b4868686868686612e7e565b6129bc6109b3565b156129fc576040517f08c379a00000000000000000000000000000000000000000000000000000000081526004016129f3906149fc565b60405180910390fd5b505050505050565b6000808273ffffffffffffffffffffffffffffffffffffffff163b119050919050565b6060612a4d8273ffffffffffffffffffffffffffffffffffffffff16601460ff16612a54565b9050919050565b606060006002836002612a679190614a1c565b612a7191906140fa565b67ffffffffffffffff811115612a8a57612a8961315a565b5b6040519080825280601f01601f191660200182016040528015612abc5781602001600182028036833780820191505090505b5090507f300000000000000000000000000000000000000000000000000000000000000081600081518110612af457612af3613e9e565b5b60200101907effffffffffffffffffffffffffffffffffffffffffffffffffffffffffffff1916908160001a9053507f780000000000000000000000000000000000000000000000000000000000000081600181518110612b5857612b57613e9e565b5b60200101907effffffffffffffffffffffffffffffffffffffffffffffffffffffffffffff1916908160001a90535060006001846002612b989190614a1c565b612ba291906140fa565b90505b6001811115612c42577f3031323334353637383961626364656600000000000000000000000000000000600f861660108110612be457612be3613e9e565b5b1a60f81b828281518110612bfb57612bfa613e9e565b5b60200101907effffffffffffffffffffffffffffffffffffffffffffffffffffffffffffff1916908160001a905350600485901c945080612c3b90614a5e565b9050612ba5565b5060008414612c86576040517f08c379a0000000000000000000000000000000000000000000000000000000008152600401612c7d90614ad3565b60405180910390fd5b8091505092915050565b6000612c9c8383612e86565b612cf5578260000182908060018154018082558091505060019003906000526020600020016000909190919091505582600001805490508360010160008481526020019081526020016000208190555060019050612cfa565b600090505b92915050565b60008083600101600084815260200190815260200160002054905060008114612e08576000600182612d329190614af3565b9050600060018660000180549050612d4a9190614af3565b9050818114612db9576000866000018281548110612d6b57612d6a613e9e565b5b9060005260206000200154905080876000018481548110612d8f57612d8e613e9e565b5b90600052602060002001819055508387600101600083815260200190815260200160002081905550505b85600001805480612dcd57612dcc614b27565b5b600190038181906000526020600020016000905590558560010160008681526020019081526020016000206000905560019350505050612e0e565b60009150505b92915050565b60007f01ffc9a7000000000000000000000000000000000000000000000000000000007bffffffffffffffffffffffffffffffffffffffffffffffffffffffff1916827bffffffffffffffffffffffffffffffffffffffffffffffffffffffff1916149050919050565b505050505050565b600080836001016000848152602001908152602001600020541415905092915050565b6000604051905090565b600080fd5b600080fd5b600073ffffffffffffffffffffffffffffffffffffffff82169050919050565b6000612ee882612ebd565b9050919050565b612ef881612edd565b8114612f0357600080fd5b50565b600081359050612f1581612eef565b92915050565b6000819050919050565b612f2e81612f1b565b8114612f3957600080fd5b50565b600081359050612f4b81612f25565b92915050565b60008060408385031215612f6857612f67612eb3565b5b6000612f7685828601612f06565b9250506020612f8785828601612f3c565b9150509250929050565b612f9a81612f1b565b82525050565b6000602082019050612fb56000830184612f91565b92915050565b60007fffffffff0000000000000000000000000000000000000000000000000000000082169050919050565b612ff081612fbb565b8114612ffb57600080fd5b50565b60008135905061300d81612fe7565b92915050565b60006020828403121561302957613028612eb3565b5b600061303784828501612ffe565b91505092915050565b60008115159050919050565b61305581613040565b82525050565b6000602082019050613070600083018461304c565b92915050565b60006020828403121561308c5761308b612eb3565b5b600061309a84828501612f3c565b91505092915050565b600081519050919050565b600082825260208201905092915050565b60005b838110156130dd5780820151818401526020810190506130c2565b60008484015250505050565b6000601f19601f8301169050919050565b6000613105826130a3565b61310f81856130ae565b935061311f8185602086016130bf565b613128816130e9565b840191505092915050565b6000602082019050818103600083015261314d81846130fa565b905092915050565b600080fd5b7f4e487b7100000000000000000000000000000000000000000000000000000000600052604160045260246000fd5b613192826130e9565b810181811067ffffffffffffffff821117156131b1576131b061315a565b5b80604052505050565b60006131c4612ea9565b90506131d08282613189565b919050565b600067ffffffffffffffff8211156131f0576131ef61315a565b5b602082029050602081019050919050565b600080fd5b6000613219613214846131d5565b6131ba565b9050808382526020820190506020840283018581111561323c5761323b613201565b5b835b8181101561326557806132518882612f3c565b84526020840193505060208101905061323e565b5050509392505050565b600082601f83011261328457613283613155565b5b8135613294848260208601613206565b91505092915050565b600080fd5b600067ffffffffffffffff8211156132bd576132bc61315a565b5b6132c6826130e9565b9050602081019050919050565b82818337600083830152505050565b60006132f56132f0846132a2565b6131ba565b9050828152602081018484840111156133115761331061329d565b5b61331c8482856132d3565b509392505050565b600082601f83011261333957613338613155565b5b81356133498482602086016132e2565b91505092915050565b6000806000806080858703121561336c5761336b612eb3565b5b600061337a87828801612f06565b945050602085013567ffffffffffffffff81111561339b5761339a612eb8565b5b6133a78782880161326f565b935050604085013567ffffffffffffffff8111156133c8576133c7612eb8565b5b6133d48782880161326f565b925050606085013567ffffffffffffffff8111156133f5576133f4612eb8565b5b61340187828801613324565b91505092959194509250565b6000819050919050565b6134208161340d565b811461342b57600080fd5b50565b60008135905061343d81613417565b92915050565b60006020828403121561345957613458612eb3565b5b60006134678482850161342e565b91505092915050565b6134798161340d565b82525050565b60006020820190506134946000830184613470565b92915050565b600080600080600060a086880312156134b6576134b5612eb3565b5b60006134c488828901612f06565b95505060206134d588828901612f06565b945050604086013567ffffffffffffffff8111156134f6576134f5612eb8565b5b6135028882890161326f565b935050606086013567ffffffffffffffff81111561352357613522612eb8565b5b61352f8882890161326f565b925050608086013567ffffffffffffffff8111156135505761354f612eb8565b5b61355c88828901613324565b9150509295509295909350565b600080604083850312156135805761357f612eb3565b5b600061358e8582860161342e565b925050602061359f85828601612f06565b9150509250929050565b600067ffffffffffffffff8211156135c4576135c361315a565b5b602082029050602081019050919050565b60006135e86135e3846135a9565b6131ba565b9050808382526020820190506020840283018581111561360b5761360a613201565b5b835b8181101561363457806136208882612f06565b84526020840193505060208101905061360d565b5050509392505050565b600082601f83011261365357613652613155565b5b81356136638482602086016135d5565b91505092915050565b6000806040838503121561368357613682612eb3565b5b600083013567ffffffffffffffff8111156136a1576136a0612eb8565b5b6136ad8582860161363e565b925050602083013567ffffffffffffffff8111156136ce576136cd612eb8565b5b6136da8582860161326f565b9150509250929050565b600081519050919050565b600082825260208201905092915050565b6000819050602082019050919050565b61371981612f1b565b82525050565b600061372b8383613710565b60208301905092915050565b6000602082019050919050565b600061374f826136e4565b61375981856136ef565b935061376483613700565b8060005b8381101561379557815161377c888261371f565b975061378783613737565b925050600181019050613768565b5085935050505092915050565b600060208201905081810360008301526137bc8184613744565b905092915050565b6000806000606084860312156137dd576137dc612eb3565b5b60006137eb86828701612f06565b935050602084013567ffffffffffffffff81111561380c5761380b612eb8565b5b6138188682870161326f565b925050604084013567ffffffffffffffff81111561383957613838612eb8565b5b6138458682870161326f565b9150509250925092565b6000806000806080858703121561386957613868612eb3565b5b600061387787828801612f06565b945050602061388887828801612f3c565b935050604061389987828801612f3c565b925050606085013567ffffffffffffffff8111156138ba576138b9612eb8565b5b6138c687828801613324565b91505092959194509250565b600080604083850312156138e9576138e8612eb3565b5b60006138f78582860161342e565b925050602061390885828601612f3c565b9150509250929050565b61391b81612edd565b82525050565b60006020820190506139366000830184613912565b92915050565b61394581613040565b811461395057600080fd5b50565b6000813590506139628161393c565b92915050565b6000806040838503121561397f5761397e612eb3565b5b600061398d85828601612f06565b925050602061399e85828601613953565b9150509250929050565b600080604083850312156139bf576139be612eb3565b5b60006139cd85828601612f06565b92505060206139de85828601612f06565b9150509250929050565b600080600080600060a08688031215613a0457613a03612eb3565b5b6000613a1288828901612f06565b9550506020613a2388828901612f06565b9450506040613a3488828901612f3c565b9350506060613a4588828901612f3c565b925050608086013567ffffffffffffffff811115613a6657613a65612eb8565b5b613a7288828901613324565b9150509295509295909350565b600080600060608486031215613a9857613a97612eb3565b5b6000613aa686828701612f06565b9350506020613ab786828701612f3c565b9250506040613ac886828701612f3c565b9150509250925092565b7f455243313135353a2061646472657373207a65726f206973206e6f742061207660008201527f616c6964206f776e657200000000000000000000000000000000000000000000602082015250565b6000613b2e602a836130ae565b9150613b3982613ad2565b604082019050919050565b60006020820190508181036000830152613b5d81613b21565b9050919050565b7f4e487b7100000000000000000000000000000000000000000000000000000000600052602260045260246000fd5b60006002820490506001821680613bab57607f821691505b602082108103613bbe57613bbd613b64565b5b50919050565b7f455243313135355072657365744d696e7465725061757365723a206d7573742060008201527f68617665206d696e74657220726f6c6520746f206d696e740000000000000000602082015250565b6000613c206038836130ae565b9150613c2b82613bc4565b604082019050919050565b60006020820190508181036000830152613c4f81613c13565b9050919050565b7f455243313135353a2063616c6c6572206973206e6f7420746f6b656e206f776e60008201527f6572206f7220617070726f766564000000000000000000000000000000000000602082015250565b6000613cb2602e836130ae565b9150613cbd82613c56565b604082019050919050565b60006020820190508181036000830152613ce181613ca5565b9050919050565b7f416363657373436f6e74726f6c3a2063616e206f6e6c792072656e6f756e636560008201527f20726f6c657320666f722073656c660000000000000000000000000000000000602082015250565b6000613d44602f836130ae565b9150613d4f82613ce8565b604082019050919050565b60006020820190508181036000830152613d7381613d37565b9050919050565b7f455243313135355072657365744d696e7465725061757365723a206d7573742060008201527f686176652070617573657220726f6c6520746f20756e70617573650000000000602082015250565b6000613dd6603b836130ae565b9150613de182613d7a565b604082019050919050565b60006020820190508181036000830152613e0581613dc9565b9050919050565b7f455243313135353a206163636f756e747320616e6420696473206c656e67746860008201527f206d69736d617463680000000000000000000000000000000000000000000000602082015250565b6000613e686029836130ae565b9150613e7382613e0c565b604082019050919050565b60006020820190508181036000830152613e9781613e5b565b9050919050565b7f4e487b7100000000000000000000000000000000000000000000000000000000600052603260045260246000fd5b7f4e487b7100000000000000000000000000000000000000000000000000000000600052601160045260246000fd5b6000613f0782612f1b565b91507fffffffffffffffffffffffffffffffffffffffffffffffffffffffffffffffff8203613f3957613f38613ecd565b5b600182019050919050565b7f455243313135355072657365744d696e7465725061757365723a206d7573742060008201527f686176652070617573657220726f6c6520746f20706175736500000000000000602082015250565b6000613fa06039836130ae565b9150613fab82613f44565b604082019050919050565b60006020820190508181036000830152613fcf81613f93565b9050919050565b7f455243313135353a206d696e7420746f20746865207a65726f2061646472657360008201527f7300000000000000000000000000000000000000000000000000000000000000602082015250565b60006140326021836130ae565b915061403d82613fd6565b604082019050919050565b6000602082019050818103600083015261406181614025565b9050919050565b7f455243313135353a2069647320616e6420616d6f756e7473206c656e6774682060008201527f6d69736d61746368000000000000000000000000000000000000000000000000602082015250565b60006140c46028836130ae565b91506140cf82614068565b604082019050919050565b600060208201905081810360008301526140f3816140b7565b9050919050565b600061410582612f1b565b915061411083612f1b565b925082820190508082111561412857614127613ecd565b5b92915050565b600060408201905081810360008301526141488185613744565b9050818103602083015261415c8184613744565b90509392505050565b7f455243313135353a207472616e7366657220746f20746865207a65726f20616460008201527f6472657373000000000000000000000000000000000000000000000000000000602082015250565b60006141c16025836130ae565b91506141cc82614165565b604082019050919050565b600060208201905081810360008301526141f0816141b4565b9050919050565b7f455243313135353a20696e73756666696369656e742062616c616e636520666f60008201527f72207472616e7366657200000000000000000000000000000000000000000000602082015250565b6000614253602a836130ae565b915061425e826141f7565b604082019050919050565b6000602082019050818103600083015261428281614246565b9050919050565b7f455243313135353a206275726e2066726f6d20746865207a65726f206164647260008201527f6573730000000000000000000000000000000000000000000000000000000000602082015250565b60006142e56023836130ae565b91506142f082614289565b604082019050919050565b60006020820190508181036000830152614314816142d8565b9050919050565b7f455243313135353a206275726e20616d6f756e7420657863656564732062616c60008201527f616e636500000000000000000000000000000000000000000000000000000000602082015250565b60006143776024836130ae565b91506143828261431b565b604082019050919050565b600060208201905081810360008301526143a68161436a565b9050919050565b60006040820190506143c26000830185612f91565b6143cf6020830184612f91565b9392505050565b7f455243313135353a2073657474696e6720617070726f76616c2073746174757360008201527f20666f722073656c660000000000000000000000000000000000000000000000602082015250565b60006144326029836130ae565b915061443d826143d6565b604082019050919050565b6000602082019050818103600083015261446181614425565b9050919050565b600081519050919050565b600082825260208201905092915050565b600061448f82614468565b6144998185614473565b93506144a98185602086016130bf565b6144b2816130e9565b840191505092915050565b600060a0820190506144d26000830188613912565b6144df6020830187613912565b81810360408301526144f18186613744565b905081810360608301526145058185613744565b905081810360808301526145198184614484565b90509695505050505050565b60008151905061453481612fe7565b92915050565b6000602082840312156145505761454f612eb3565b5b600061455e84828501614525565b91505092915050565b60008160e01c9050919050565b600060033d11156145935760046000803e614590600051614567565b90505b90565b600060443d10614623576145a8612ea9565b60043d036004823e80513d602482011167ffffffffffffffff821117156145d0575050614623565b808201805167ffffffffffffffff8111156145ee5750505050614623565b80602083010160043d03850181111561460b575050505050614623565b61461a82602001850186613189565b82955050505050505b90565b7f455243313135353a207472616e7366657220746f206e6f6e2d4552433131353560008201527f526563656976657220696d706c656d656e746572000000000000000000000000602082015250565b60006146826034836130ae565b915061468d82614626565b604082019050919050565b600060208201905081810360008301526146b181614675565b9050919050565b7f455243313135353a204552433131353552656365697665722072656a6563746560008201527f6420746f6b656e73000000000000000000000000000000000000000000000000602082015250565b60006147146028836130ae565b915061471f826146b8565b604082019050919050565b6000602082019050818103600083015261474381614707565b9050919050565b600081905092915050565b7f416363657373436f6e74726f6c3a206163636f756e7420000000000000000000600082015250565b600061478b60178361474a565b915061479682614755565b601782019050919050565b60006147ac826130a3565b6147b6818561474a565b93506147c68185602086016130bf565b80840191505092915050565b7f206973206d697373696e6720726f6c6520000000000000000000000000000000600082015250565b600061480860118361474a565b9150614813826147d2565b601182019050919050565b60006148298261477e565b915061483582856147a1565b9150614840826147fb565b915061484c82846147a1565b91508190509392505050565b7f5061757361626c653a206e6f7420706175736564000000000000000000000000600082015250565b600061488e6014836130ae565b915061489982614858565b602082019050919050565b600060208201905081810360008301526148bd81614881565b9050919050565b600060a0820190506148d96000830188613912565b6148e66020830187613912565b6148f36040830186612f91565b6149006060830185612f91565b81810360808301526149128184614484565b90509695505050505050565b7f5061757361626c653a2070617573656400000000000000000000000000000000600082015250565b60006149546010836130ae565b915061495f8261491e565b602082019050919050565b6000602082019050818103600083015261498381614947565b9050919050565b7f455243313135355061757361626c653a20746f6b656e207472616e736665722060008201527f7768696c65207061757365640000000000000000000000000000000000000000602082015250565b60006149e6602c836130ae565b91506149f18261498a565b604082019050919050565b60006020820190508181036000830152614a15816149d9565b9050919050565b6000614a2782612f1b565b9150614a3283612f1b565b9250828202614a4081612f1b565b91508282048414831517614a5757614a56613ecd565b5b5092915050565b6000614a6982612f1b565b915060008203614a7c57614a7b613ecd565b5b600182039050919050565b7f537472696e67733a20686578206c656e67746820696e73756666696369656e74600082015250565b6000614abd6020836130ae565b9150614ac882614a87565b602082019050919050565b60006020820190508181036000830152614aec81614ab0565b9050919050565b6000614afe82612f1b565b9150614b0983612f1b565b9250828203905081811115614b2157614b20613ecd565b5b92915050565b7f4e487b7100000000000000000000000000000000000000000000000000000000600052603160045260246000fdfea26469706673582212204dab3c832e5e7d0bc331086619ed9c5006ce1289da05115a2d705da7f7e510f464736f6c63430008130033",
  "linkReferences": {},
  "deployedLinkReferences": {}
}