{
  "_format": "hh-sol-artifact-1",
  "contractName": "MyERC1155",
  "sourceName": "contracts/dnftERC1155.sol",
  "abi": [
    {
      "inputs": [],
      "stateMutability": "nonpayable",
      "type": "constructor"
    },
    {
      "anonymous": false,
      "inputs": [
        {
          "indexed": true,
          "internalType": "address",
          "name": "account",
          "type": "address"
        },
        {
          "indexed": true,
          "internalType": "address",
          "name": "operator",
          "type": "address"
        },
        {
          "indexed": false,
          "internalType": "bool",
          "name": "approved",
          "type": "bool"
        }
      ],
      "name": "ApprovalForAll",
      "type": "event"
    },
    {
      "anonymous": false,
      "inputs": [
        {
          "indexed": false,
          "internalType": "address",
          "name": "account",
          "type": "address"
        }
      ],
      "name": "Paused",
      "type": "event"
    },
    {
      "anonymous": false,
      "inputs": [
        {
          "indexed": true,
          "internalType": "bytes32",
          "name": "role",
          "type": "bytes32"
        },
        {
          "indexed": true,
          "internalType": "bytes32",
          "name": "previousAdminRole",
          "type": "bytes32"
        },
        {
          "indexed": true,
          "internalType": "bytes32",
          "name": "newAdminRole",
          "type": "bytes32"
        }
      ],
      "name": "RoleAdminChanged",
      "type": "event"
    },
    {
      "anonymous": false,
      "inputs": [
        {
          "indexed": true,
          "internalType": "bytes32",
          "name": "role",
          "type": "bytes32"
        },
        {
          "indexed": true,
          "internalType": "address",
          "name": "account",
          "type": "address"
        },
        {
          "indexed": true,
          "internalType": "address",
          "name": "sender",
          "type": "address"
        }
      ],
      "name": "RoleGranted",
      "type": "event"
    },
    {
      "anonymous": false,
      "inputs": [
        {
          "indexed": true,
          "internalType": "bytes32",
          "name": "role",
          "type": "bytes32"
        },
        {
          "indexed": true,
          "internalType": "address",
          "name": "account",
          "type": "address"
        },
        {
          "indexed": true,
          "internalType": "address",
          "name": "sender",
          "type": "address"
        }
      ],
      "name": "RoleRevoked",
      "type": "event"
    },
    {
      "anonymous": false,
      "inputs": [
        {
          "indexed": true,
          "internalType": "address",
          "name": "operator",
          "type": "address"
        },
        {
          "indexed": true,
          "internalType": "address",
          "name": "from",
          "type": "address"
        },
        {
          "indexed": true,
          "internalType": "address",
          "name": "to",
          "type": "address"
        },
        {
          "indexed": false,
          "internalType": "uint256[]",
          "name": "ids",
          "type": "uint256[]"
        },
        {
          "indexed": false,
          "internalType": "uint256[]",
          "name": "values",
          "type": "uint256[]"
        }
      ],
      "name": "TransferBatch",
      "type": "event"
    },
    {
      "anonymous": false,
      "inputs": [
        {
          "indexed": true,
          "internalType": "address",
          "name": "operator",
          "type": "address"
        },
        {
          "indexed": true,
          "internalType": "address",
          "name": "from",
          "type": "address"
        },
        {
          "indexed": true,
          "internalType": "address",
          "name": "to",
          "type": "address"
        },
        {
          "indexed": false,
          "internalType": "uint256",
          "name": "id",
          "type": "uint256"
        },
        {
          "indexed": false,
          "internalType": "uint256",
          "name": "value",
          "type": "uint256"
        }
      ],
      "name": "TransferSingle",
      "type": "event"
    },
    {
      "anonymous": false,
      "inputs": [
        {
          "indexed": false,
          "internalType": "string",
          "name": "value",
          "type": "string"
        },
        {
          "indexed": true,
          "internalType": "uint256",
          "name": "id",
          "type": "uint256"
        }
      ],
      "name": "URI",
      "type": "event"
    },
    {
      "anonymous": false,
      "inputs": [
        {
          "indexed": false,
          "internalType": "address",
          "name": "account",
          "type": "address"
        }
      ],
      "name": "Unpaused",
      "type": "event"
    },
    {
      "inputs": [],
      "name": "DEFAULT_ADMIN_ROLE",
      "outputs": [
        {
          "internalType": "bytes32",
          "name": "",
          "type": "bytes32"
        }
      ],
      "stateMutability": "view",
      "type": "function"
    },
    {
      "inputs": [],
      "name": "MINTER_ROLE",
      "outputs": [
        {
          "internalType": "bytes32",
          "name": "",
          "type": "bytes32"
        }
      ],
      "stateMutability": "view",
      "type": "function"
    },
    {
      "inputs": [],
      "name": "PAUSER_ROLE",
      "outputs": [
        {
          "internalType": "bytes32",
          "name": "",
          "type": "bytes32"
        }
      ],
      "stateMutability": "view",
      "type": "function"
    },
    {
      "inputs": [
        {
          "internalType": "address",
          "name": "account",
          "type": "address"
        },
        {
          "internalType": "uint256",
          "name": "id",
          "type": "uint256"
        }
      ],
      "name": "balanceOf",
      "outputs": [
        {
          "internalType": "uint256",
          "name": "",
          "type": "uint256"
        }
      ],
      "stateMutability": "view",
      "type": "function"
    },
    {
      "inputs": [
        {
          "internalType": "address[]",
          "name": "accounts",
          "type": "address[]"
        },
        {
          "internalType": "uint256[]",
          "name": "ids",
          "type": "uint256[]"
        }
      ],
      "name": "balanceOfBatch",
      "outputs": [
        {
          "internalType": "uint256[]",
          "name": "",
          "type": "uint256[]"
        }
      ],
      "stateMutability": "view",
      "type": "function"
    },
    {
      "inputs": [
        {
          "internalType": "address",
          "name": "account",
          "type": "address"
        },
        {
          "internalType": "uint256",
          "name": "id",
          "type": "uint256"
        },
        {
          "internalType": "uint256",
          "name": "value",
          "type": "uint256"
        }
      ],
      "name": "burn",
      "outputs": [],
      "stateMutability": "nonpayable",
      "type": "function"
    },
    {
      "inputs": [
        {
          "internalType": "address",
          "name": "account",
          "type": "address"
        },
        {
          "internalType": "uint256[]",
          "name": "ids",
          "type": "uint256[]"
        },
        {
          "internalType": "uint256[]",
          "name": "values",
          "type": "uint256[]"
        }
      ],
      "name": "burnBatch",
      "outputs": [],
      "stateMutability": "nonpayable",
      "type": "function"
    },
    {
      "inputs": [
        {
          "internalType": "bytes32",
          "name": "role",
          "type": "bytes32"
        }
      ],
      "name": "getRoleAdmin",
      "outputs": [
        {
          "internalType": "bytes32",
          "name": "",
          "type": "bytes32"
        }
      ],
      "stateMutability": "view",
      "type": "function"
    },
    {
      "inputs": [
        {
          "internalType": "bytes32",
          "name": "role",
          "type": "bytes32"
        },
        {
          "internalType": "uint256",
          "name": "index",
          "type": "uint256"
        }
      ],
      "name": "getRoleMember",
      "outputs": [
        {
          "internalType": "address",
          "name": "",
          "type": "address"
        }
      ],
      "stateMutability": "view",
      "type": "function"
    },
    {
      "inputs": [
        {
          "internalType": "bytes32",
          "name": "role",
          "type": "bytes32"
        }
      ],
      "name": "getRoleMemberCount",
      "outputs": [
        {
          "internalType": "uint256",
          "name": "",
          "type": "uint256"
        }
      ],
      "stateMutability": "view",
      "type": "function"
    },
    {
      "inputs": [
        {
          "internalType": "bytes32",
          "name": "role",
          "type": "bytes32"
        },
        {
          "internalType": "address",
          "name": "account",
          "type": "address"
        }
      ],
      "name": "grantRole",
      "outputs": [],
      "stateMutability": "nonpayable",
      "type": "function"
    },
    {
      "inputs": [
        {
          "internalType": "bytes32",
          "name": "role",
          "type": "bytes32"
        },
        {
          "internalType": "address",
          "name": "account",
          "type": "address"
        }
      ],
      "name": "hasRole",
      "outputs": [
        {
          "internalType": "bool",
          "name": "",
          "type": "bool"
        }
      ],
      "stateMutability": "view",
      "type": "function"
    },
    {
      "inputs": [
        {
          "internalType": "address",
          "name": "account",
          "type": "address"
        },
        {
          "internalType": "address",
          "name": "operator",
          "type": "address"
        }
      ],
      "name": "isApprovedForAll",
      "outputs": [
        {
          "internalType": "bool",
          "name": "",
          "type": "bool"
        }
      ],
      "stateMutability": "view",
      "type": "function"
    },
    {
      "inputs": [
        {
          "internalType": "address",
          "name": "to",
          "type": "address"
        },
        {
          "internalType": "uint256",
          "name": "id",
          "type": "uint256"
        },
        {
          "internalType": "uint256",
          "name": "amount",
          "type": "uint256"
        },
        {
          "internalType": "bytes",
          "name": "data",
          "type": "bytes"
        }
      ],
      "name": "mint",
      "outputs": [],
      "stateMutability": "nonpayable",
      "type": "function"
    },
    {
      "inputs": [
        {
          "internalType": "address",
          "name": "to",
          "type": "address"
        },
        {
          "internalType": "uint256[]",
          "name": "ids",
          "type": "uint256[]"
        },
        {
          "internalType": "uint256[]",
          "name": "amounts",
          "type": "uint256[]"
        },
        {
          "internalType": "bytes",
          "name": "data",
          "type": "bytes"
        }
      ],
      "name": "mintBatch",
      "outputs": [],
      "stateMutability": "nonpayable",
      "type": "function"
    },
    {
      "inputs": [
        {
          "internalType": "address",
          "name": "to",
          "type": "address"
        },
        {
          "internalType": "uint256",
          "name": "seriesId",
          "type": "uint256"
        },
        {
          "internalType": "uint256",
          "name": "amount",
          "type": "uint256"
        },
        {
          "internalType": "string[]",
          "name": "tokenURIs",
          "type": "string[]"
        },
        {
          "internalType": "bytes",
          "name": "data",
          "type": "bytes"
        }
      ],
      "name": "mintSeries",
      "outputs": [],
      "stateMutability": "nonpayable",
      "type": "function"
    },
    {
      "inputs": [],
      "name": "nextSeriesId",
      "outputs": [
        {
          "internalType": "uint256",
          "name": "",
          "type": "uint256"
        }
      ],
      "stateMutability": "view",
      "type": "function"
    },
    {
      "inputs": [],
      "name": "pause",
      "outputs": [],
      "stateMutability": "nonpayable",
      "type": "function"
    },
    {
      "inputs": [],
      "name": "paused",
      "outputs": [
        {
          "internalType": "bool",
          "name": "",
          "type": "bool"
        }
      ],
      "stateMutability": "view",
      "type": "function"
    },
    {
      "inputs": [
        {
          "internalType": "bytes32",
          "name": "role",
          "type": "bytes32"
        },
        {
          "internalType": "address",
          "name": "account",
          "type": "address"
        }
      ],
      "name": "renounceRole",
      "outputs": [],
      "stateMutability": "nonpayable",
      "type": "function"
    },
    {
      "inputs": [
        {
          "internalType": "bytes32",
          "name": "role",
          "type": "bytes32"
        },
        {
          "internalType": "address",
          "name": "account",
          "type": "address"
        }
      ],
      "name": "revokeRole",
      "outputs": [],
      "stateMutability": "nonpayable",
      "type": "function"
    },
    {
      "inputs": [
        {
          "internalType": "address",
          "name": "from",
          "type": "address"
        },
        {
          "internalType": "address",
          "name": "to",
          "type": "address"
        },
        {
          "internalType": "uint256[]",
          "name": "ids",
          "type": "uint256[]"
        },
        {
          "internalType": "uint256[]",
          "name": "amounts",
          "type": "uint256[]"
        },
        {
          "internalType": "bytes",
          "name": "data",
          "type": "bytes"
        }
      ],
      "name": "safeBatchTransferFrom",
      "outputs": [],
      "stateMutability": "nonpayable",
      "type": "function"
    },
    {
      "inputs": [
        {
          "internalType": "address",
          "name": "from",
          "type": "address"
        },
        {
          "internalType": "address",
          "name": "to",
          "type": "address"
        },
        {
          "internalType": "uint256",
          "name": "id",
          "type": "uint256"
        },
        {
          "internalType": "uint256",
          "name": "amount",
          "type": "uint256"
        },
        {
          "internalType": "bytes",
          "name": "data",
          "type": "bytes"
        }
      ],
      "name": "safeTransferFrom",
      "outputs": [],
      "stateMutability": "nonpayable",
      "type": "function"
    },
    {
      "inputs": [
        {
          "internalType": "address",
          "name": "operator",
          "type": "address"
        },
        {
          "internalType": "bool",
          "name": "approved",
          "type": "bool"
        }
      ],
      "name": "setApprovalForAll",
      "outputs": [],
      "stateMutability": "nonpayable",
      "type": "function"
    },
    {
      "inputs": [
        {
          "internalType": "string",
          "name": "baseURI",
          "type": "string"
        }
      ],
      "name": "setBaseURI",
      "outputs": [],
      "stateMutability": "nonpayable",
      "type": "function"
    },
    {
      "inputs": [
        {
          "internalType": "uint256",
          "name": "tokenId",
          "type": "uint256"
        },
        {
          "internalType": "string",
          "name": "tokenURI",
          "type": "string"
        }
      ],
      "name": "setURI",
      "outputs": [],
      "stateMutability": "nonpayable",
      "type": "function"
    },
    {
      "inputs": [
        {
          "internalType": "bytes4",
          "name": "interfaceId",
          "type": "bytes4"
        }
      ],
      "name": "supportsInterface",
      "outputs": [
        {
          "internalType": "bool",
          "name": "",
          "type": "bool"
        }
      ],
      "stateMutability": "view",
      "type": "function"
    },
    {
      "inputs": [],
      "name": "unpause",
      "outputs": [],
      "stateMutability": "nonpayable",
      "type": "function"
    },
    {
      "inputs": [
        {
          "internalType": "uint256",
          "name": "tokenId",
          "type": "uint256"
        }
      ],
      "name": "uri",
      "outputs": [
        {
          "internalType": "string",
          "name": "",
          "type": "string"
        }
      ],
      "stateMutability": "view",
      "type": "function"
    }
  ],
  "bytecode": "0x608060405260405180606001604052806039815260200162005bb260399139600690816200002e91906200066e565b50600a6007553480156200004157600080fd5b506040518060400160405280600181526020017f3100000000000000000000000000000000000000000000000000000000000000815250806200008a816200015360201b60201c565b506000600560006101000a81548160ff021916908315150217905550620000ca6000801b620000be6200016860201b60201c565b6200017060201b60201c565b6200010b7f9f2df0fed2c77648de5860a4cc508cd0818c85b8b8a1ab4ceeef8d981c8956a6620000ff6200016860201b60201c565b6200017060201b60201c565b6200014c7f65d7a28e3265b37a6474929f336521b332c1681b933f6cb9f3376673440d862a620001406200016860201b60201c565b6200017060201b60201c565b5062000755565b80600490816200016491906200066e565b5050565b600033905090565b6200018282826200018660201b60201c565b5050565b620001988282620001c460201b60201c565b620001bf8160016000858152602001908152602001600020620002b560201b90919060201c565b505050565b620001d68282620002ed60201b60201c565b620002b157600160008084815260200190815260200160002060000160008373ffffffffffffffffffffffffffffffffffffffff1673ffffffffffffffffffffffffffffffffffffffff16815260200190815260200160002060006101000a81548160ff021916908315150217905550620002566200016860201b60201c565b73ffffffffffffffffffffffffffffffffffffffff168173ffffffffffffffffffffffffffffffffffffffff16837f2f8788117e7eff1d82e926ec794901d17c78024a50270940304540a733656f0d60405160405180910390a45b5050565b6000620002e5836000018373ffffffffffffffffffffffffffffffffffffffff1660001b6200035760201b60201c565b905092915050565b600080600084815260200190815260200160002060000160008373ffffffffffffffffffffffffffffffffffffffff1673ffffffffffffffffffffffffffffffffffffffff16815260200190815260200160002060009054906101000a900460ff16905092915050565b60006200036b8383620003d160201b60201c565b620003c6578260000182908060018154018082558091505060019003906000526020600020016000909190919091505582600001805490508360010160008481526020019081526020016000208190555060019050620003cb565b600090505b92915050565b600080836001016000848152602001908152602001600020541415905092915050565b600081519050919050565b7f4e487b7100000000000000000000000000000000000000000000000000000000600052604160045260246000fd5b7f4e487b7100000000000000000000000000000000000000000000000000000000600052602260045260246000fd5b600060028204905060018216806200047657607f821691505b6020821081036200048c576200048b6200042e565b5b50919050565b60008190508160005260206000209050919050565b60006020601f8301049050919050565b600082821b905092915050565b600060088302620004f67fffffffffffffffffffffffffffffffffffffffffffffffffffffffffffffffff82620004b7565b620005028683620004b7565b95508019841693508086168417925050509392505050565b6000819050919050565b6000819050919050565b60006200054f6200054962000543846200051a565b62000524565b6200051a565b9050919050565b6000819050919050565b6200056b836200052e565b620005836200057a8262000556565b848454620004c4565b825550505050565b600090565b6200059a6200058b565b620005a781848462000560565b505050565b5b81811015620005cf57620005c360008262000590565b600181019050620005ad565b5050565b601f8211156200061e57620005e88162000492565b620005f384620004a7565b8101602085101562000603578190505b6200061b6200061285620004a7565b830182620005ac565b50505b505050565b600082821c905092915050565b6000620006436000198460080262000623565b1980831691505092915050565b60006200065e838362000630565b9150826002028217905092915050565b6200067982620003f4565b67ffffffffffffffff811115620006955762000694620003ff565b5b620006a182546200045d565b620006ae828285620005d3565b600060209050601f831160018114620006e65760008415620006d1578287015190505b620006dd858262000650565b8655506200074d565b601f198416620006f68662000492565b60005b828110156200072057848901518255600182019150602085019450602081019050620006f9565b868310156200074057848901516200073c601f89168262000630565b8355505b6001600288020188555050505b505050505050565b61544d80620007656000396000f3fe608060405234801561001057600080fd5b50600436106101ce5760003560e01c80636ed3e3e311610104578063a22cb465116100a2578063e63ab1e911610071578063e63ab1e914610513578063e985e9c514610531578063f242432a14610561578063f5298aca1461057d576101ce565b8063a22cb4651461048d578063ca15c873146104a9578063d5391393146104d9578063d547741f146104f7576101ce565b8063862440e2116100de578063862440e2146103f35780639010d07c1461040f57806391d148541461043f578063a217fddf1461046f576101ce565b80636ed3e3e3146103af578063731133e9146103cd5780638456cb59146103e9576101ce565b806336568abe116101715780634e1273f41161014b5780634e1273f41461032957806355f804b3146103595780635c975abb146103755780636b20c45414610393576101ce565b806336568abe146102e75780633f4ba83a14610303578063476e4a6e1461030d576101ce565b80631f7fdffa116101ad5780631f7fdffa14610263578063248a9ca31461027f5780632eb2c2d6146102af5780632f2ff15d146102cb576101ce565b8062fdd58e146101d357806301ffc9a7146102035780630e89341c14610233575b600080fd5b6101ed60048036038101906101e89190613213565b610599565b6040516101fa9190613262565b60405180910390f35b61021d600480360381019061021891906132d5565b610662565b60405161022a919061331d565b60405180910390f35b61024d60048036038101906102489190613338565b610674565b60405161025a91906133f5565b60405180910390f35b61027d60048036038101906102789190613614565b610759565b005b61029960048036038101906102949190613705565b6107db565b6040516102a69190613741565b60405180910390f35b6102c960048036038101906102c4919061375c565b6107fa565b005b6102e560048036038101906102e0919061382b565b61089b565b005b61030160048036038101906102fc919061382b565b6108bc565b005b61030b61093f565b005b610327600480360381019061032291906139ed565b6109b9565b005b610343600480360381019061033e9190613b63565b610a30565b6040516103509190613c99565b60405180910390f35b610373600480360381019061036e9190613cbb565b610b49565b005b61037d610b55565b60405161038a919061331d565b60405180910390f35b6103ad60048036038101906103a89190613d04565b610b6c565b005b6103b7610c09565b6040516103c49190613262565b60405180910390f35b6103e760048036038101906103e29190613d8f565b610c0f565b005b6103f1610c91565b005b61040d60048036038101906104089190613e12565b610d0b565b005b61042960048036038101906104249190613e6e565b610d19565b6040516104369190613ebd565b60405180910390f35b6104596004803603810190610454919061382b565b610d48565b604051610466919061331d565b60405180910390f35b610477610db2565b6040516104849190613741565b60405180910390f35b6104a760048036038101906104a29190613f04565b610db9565b005b6104c360048036038101906104be9190613705565b610dcf565b6040516104d09190613262565b60405180910390f35b6104e1610df3565b6040516104ee9190613741565b60405180910390f35b610511600480360381019061050c919061382b565b610e17565b005b61051b610e38565b6040516105289190613741565b60405180910390f35b61054b60048036038101906105469190613f44565b610e5c565b604051610558919061331d565b60405180910390f35b61057b60048036038101906105769190613f84565b610ef0565b005b6105976004803603810190610592919061401b565b610f91565b005b60008073ffffffffffffffffffffffffffffffffffffffff168373ffffffffffffffffffffffffffffffffffffffff1603610609576040517f08c379a0000000000000000000000000000000000000000000000000000000008152600401610600906140e0565b60405180910390fd5b6002600083815260200190815260200160002060008473ffffffffffffffffffffffffffffffffffffffff1673ffffffffffffffffffffffffffffffffffffffff16815260200190815260200160002054905092915050565b600061066d8261102e565b9050919050565b606060006008600084815260200190815260200160002080546106969061412f565b80601f01602080910402602001604051908101604052809291908181526020018280546106c29061412f565b801561070f5780601f106106e45761010080835404028352916020019161070f565b820191906000526020600020905b8154815290600101906020018083116106f257829003601f168201915b50505050509050600081511161072d5761072883611110565b610751565b600681604051602001610741929190614234565b6040516020818303038152906040525b915050919050565b61078a7f9f2df0fed2c77648de5860a4cc508cd0818c85b8b8a1ab4ceeef8d981c8956a66107856111a4565b610d48565b6107c9576040517f08c379a00000000000000000000000000000000000000000000000000000000081526004016107c0906142ca565b60405180910390fd5b6107d5848484846111ac565b50505050565b6000806000838152602001908152602001600020600101549050919050565b6108026111a4565b73ffffffffffffffffffffffffffffffffffffffff168573ffffffffffffffffffffffffffffffffffffffff1614806108485750610847856108426111a4565b610e5c565b5b610887576040517f08c379a000000000000000000000000000000000000000000000000000000000815260040161087e9061435c565b60405180910390fd5b61089485858585856113d9565b5050505050565b6108a4826107db565b6108ad816116fd565b6108b78383611711565b505050565b6108c46111a4565b73ffffffffffffffffffffffffffffffffffffffff168173ffffffffffffffffffffffffffffffffffffffff1614610931576040517f08c379a0000000000000000000000000000000000000000000000000000000008152600401610928906143ee565b60405180910390fd5b61093b8282611745565b5050565b6109707f65d7a28e3265b37a6474929f336521b332c1681b933f6cb9f3376673440d862a61096b6111a4565b610d48565b6109af576040517f08c379a00000000000000000000000000000000000000000000000000000000081526004016109a690614480565b60405180910390fd5b6109b7611779565b565b6000600a856109c891906144cf565b905060005b8351811015610a27576109fa828583815181106109ed576109ec614511565b5b60200260200101516117dc565b610a0687838786611841565b8180610a1190614540565b9250508080610a1f90614540565b9150506109cd565b50505050505050565b60608151835114610a76576040517f08c379a0000000000000000000000000000000000000000000000000000000008152600401610a6d906145fa565b60405180910390fd5b6000835167ffffffffffffffff811115610a9357610a9261341c565b5b604051908082528060200260200182016040528015610ac15781602001602082028036833780820191505090505b50905060005b8451811015610b3e57610b0e858281518110610ae657610ae5614511565b5b6020026020010151858381518110610b0157610b00614511565b5b6020026020010151610599565b828281518110610b2157610b20614511565b5b60200260200101818152505080610b3790614540565b9050610ac7565b508091505092915050565b610b52816119f2565b50565b6000600560009054906101000a900460ff16905090565b610b746111a4565b73ffffffffffffffffffffffffffffffffffffffff168373ffffffffffffffffffffffffffffffffffffffff161480610bba5750610bb983610bb46111a4565b610e5c565b5b610bf9576040517f08c379a0000000000000000000000000000000000000000000000000000000008152600401610bf09061435c565b60405180910390fd5b610c04838383611a05565b505050565b60075481565b610c407f9f2df0fed2c77648de5860a4cc508cd0818c85b8b8a1ab4ceeef8d981c8956a6610c3b6111a4565b610d48565b610c7f576040517f08c379a0000000000000000000000000000000000000000000000000000000008152600401610c76906142ca565b60405180910390fd5b610c8b84848484611841565b50505050565b610cc27f65d7a28e3265b37a6474929f336521b332c1681b933f6cb9f3376673440d862a610cbd6111a4565b610d48565b610d01576040517f08c379a0000000000000000000000000000000000000000000000000000000008152600401610cf89061468c565b60405180910390fd5b610d09611cd5565b565b610d1582826117dc565b5050565b6000610d408260016000868152602001908152602001600020611d3890919063ffffffff16565b905092915050565b600080600084815260200190815260200160002060000160008373ffffffffffffffffffffffffffffffffffffffff1673ffffffffffffffffffffffffffffffffffffffff16815260200190815260200160002060009054906101000a900460ff16905092915050565b6000801b81565b610dcb610dc46111a4565b8383611d52565b5050565b6000610dec60016000848152602001908152602001600020611ebe565b9050919050565b7f9f2df0fed2c77648de5860a4cc508cd0818c85b8b8a1ab4ceeef8d981c8956a681565b610e20826107db565b610e29816116fd565b610e338383611745565b505050565b7f65d7a28e3265b37a6474929f336521b332c1681b933f6cb9f3376673440d862a81565b6000600360008473ffffffffffffffffffffffffffffffffffffffff1673ffffffffffffffffffffffffffffffffffffffff16815260200190815260200160002060008373ffffffffffffffffffffffffffffffffffffffff1673ffffffffffffffffffffffffffffffffffffffff16815260200190815260200160002060009054906101000a900460ff16905092915050565b610ef86111a4565b73ffffffffffffffffffffffffffffffffffffffff168573ffffffffffffffffffffffffffffffffffffffff161480610f3e5750610f3d85610f386111a4565b610e5c565b5b610f7d576040517f08c379a0000000000000000000000000000000000000000000000000000000008152600401610f749061435c565b60405180910390fd5b610f8a8585858585611ed3565b5050505050565b610f996111a4565b73ffffffffffffffffffffffffffffffffffffffff168373ffffffffffffffffffffffffffffffffffffffff161480610fdf5750610fde83610fd96111a4565b610e5c565b5b61101e576040517f08c379a00000000000000000000000000000000000000000000000000000000081526004016110159061435c565b60405180910390fd5b611029838383612171565b505050565b60007fd9b67a26000000000000000000000000000000000000000000000000000000007bffffffffffffffffffffffffffffffffffffffffffffffffffffffff1916827bffffffffffffffffffffffffffffffffffffffffffffffffffffffff191614806110f957507f0e89341c000000000000000000000000000000000000000000000000000000007bffffffffffffffffffffffffffffffffffffffffffffffffffffffff1916827bffffffffffffffffffffffffffffffffffffffffffffffffffffffff1916145b806111095750611108826123b9565b5b9050919050565b60606004805461111f9061412f565b80601f016020809104026020016040519081016040528092919081815260200182805461114b9061412f565b80156111985780601f1061116d57610100808354040283529160200191611198565b820191906000526020600020905b81548152906001019060200180831161117b57829003601f168201915b50505050509050919050565b600033905090565b600073ffffffffffffffffffffffffffffffffffffffff168473ffffffffffffffffffffffffffffffffffffffff160361121b576040517f08c379a00000000000000000000000000000000000000000000000000000000081526004016112129061471e565b60405180910390fd5b815183511461125f576040517f08c379a0000000000000000000000000000000000000000000000000000000008152600401611256906147b0565b60405180910390fd5b60006112696111a4565b905061127a81600087878787612433565b60005b84518110156113345783818151811061129957611298614511565b5b6020026020010151600260008784815181106112b8576112b7614511565b5b6020026020010151815260200190815260200160002060008873ffffffffffffffffffffffffffffffffffffffff1673ffffffffffffffffffffffffffffffffffffffff168152602001908152602001600020600082825461131a91906147d0565b92505081905550808061132c90614540565b91505061127d565b508473ffffffffffffffffffffffffffffffffffffffff16600073ffffffffffffffffffffffffffffffffffffffff168273ffffffffffffffffffffffffffffffffffffffff167f4a39dc06d4c0dbc64b70af90fd698a233a518aa5d07e595d983b8c0526c8f7fb87876040516113ac929190614804565b60405180910390a46113c381600087878787612449565b6113d281600087878787612451565b5050505050565b815183511461141d576040517f08c379a0000000000000000000000000000000000000000000000000000000008152600401611414906147b0565b60405180910390fd5b600073ffffffffffffffffffffffffffffffffffffffff168473ffffffffffffffffffffffffffffffffffffffff160361148c576040517f08c379a0000000000000000000000000000000000000000000000000000000008152600401611483906148ad565b60405180910390fd5b60006114966111a4565b90506114a6818787878787612433565b60005b845181101561165a5760008582815181106114c7576114c6614511565b5b6020026020010151905060008583815181106114e6576114e5614511565b5b6020026020010151905060006002600084815260200190815260200160002060008b73ffffffffffffffffffffffffffffffffffffffff1673ffffffffffffffffffffffffffffffffffffffff16815260200190815260200160002054905081811015611588576040517f08c379a000000000000000000000000000000000000000000000000000000000815260040161157f9061493f565b60405180910390fd5b8181036002600085815260200190815260200160002060008c73ffffffffffffffffffffffffffffffffffffffff1673ffffffffffffffffffffffffffffffffffffffff16815260200190815260200160002081905550816002600085815260200190815260200160002060008b73ffffffffffffffffffffffffffffffffffffffff1673ffffffffffffffffffffffffffffffffffffffff168152602001908152602001600020600082825461163f91906147d0565b925050819055505050508061165390614540565b90506114a9565b508473ffffffffffffffffffffffffffffffffffffffff168673ffffffffffffffffffffffffffffffffffffffff168273ffffffffffffffffffffffffffffffffffffffff167f4a39dc06d4c0dbc64b70af90fd698a233a518aa5d07e595d983b8c0526c8f7fb87876040516116d1929190614804565b60405180910390a46116e7818787878787612449565b6116f5818787878787612451565b505050505050565b61170e816117096111a4565b612628565b50565b61171b82826126ad565b611740816001600085815260200190815260200160002061278d90919063ffffffff16565b505050565b61174f82826127bd565b611774816001600085815260200190815260200160002061289e90919063ffffffff16565b505050565b6117816128ce565b6000600560006101000a81548160ff0219169083151502179055507f5db9ee0a495bf2e6ff9c91a7834c1ba4fdd244a5e8aa4e537bd38aeae4b073aa6117c56111a4565b6040516117d29190613ebd565b60405180910390a1565b806008600084815260200190815260200160002090816117fc9190614af6565b50817f6bb7ff708619ba0610cba295a58592e0451dee2622938c8755667688daf3529b61182884610674565b60405161183591906133f5565b60405180910390a25050565b600073ffffffffffffffffffffffffffffffffffffffff168473ffffffffffffffffffffffffffffffffffffffff16036118b0576040517f08c379a00000000000000000000000000000000000000000000000000000000081526004016118a79061471e565b60405180910390fd5b60006118ba6111a4565b905060006118c785612917565b905060006118d485612917565b90506118e583600089858589612433565b846002600088815260200190815260200160002060008973ffffffffffffffffffffffffffffffffffffffff1673ffffffffffffffffffffffffffffffffffffffff168152602001908152602001600020600082825461194591906147d0565b925050819055508673ffffffffffffffffffffffffffffffffffffffff16600073ffffffffffffffffffffffffffffffffffffffff168473ffffffffffffffffffffffffffffffffffffffff167fc3d58168c5ae7397731d063d5bbf3d657854427343f4c083240f7aacaa2d0f6289896040516119c3929190614bc8565b60405180910390a46119da83600089858589612449565b6119e983600089898989612991565b50505050505050565b8060069081611a019190614af6565b5050565b600073ffffffffffffffffffffffffffffffffffffffff168373ffffffffffffffffffffffffffffffffffffffff1603611a74576040517f08c379a0000000000000000000000000000000000000000000000000000000008152600401611a6b90614c63565b60405180910390fd5b8051825114611ab8576040517f08c379a0000000000000000000000000000000000000000000000000000000008152600401611aaf906147b0565b60405180910390fd5b6000611ac26111a4565b9050611ae281856000868660405180602001604052806000815250612433565b60005b8351811015611c31576000848281518110611b0357611b02614511565b5b602002602001015190506000848381518110611b2257611b21614511565b5b6020026020010151905060006002600084815260200190815260200160002060008973ffffffffffffffffffffffffffffffffffffffff1673ffffffffffffffffffffffffffffffffffffffff16815260200190815260200160002054905081811015611bc4576040517f08c379a0000000000000000000000000000000000000000000000000000000008152600401611bbb90614cf5565b60405180910390fd5b8181036002600085815260200190815260200160002060008a73ffffffffffffffffffffffffffffffffffffffff1673ffffffffffffffffffffffffffffffffffffffff168152602001908152602001600020819055505050508080611c2990614540565b915050611ae5565b50600073ffffffffffffffffffffffffffffffffffffffff168473ffffffffffffffffffffffffffffffffffffffff168273ffffffffffffffffffffffffffffffffffffffff167f4a39dc06d4c0dbc64b70af90fd698a233a518aa5d07e595d983b8c0526c8f7fb8686604051611ca9929190614804565b60405180910390a4611ccf81856000868660405180602001604052806000815250612449565b50505050565b611cdd612b68565b6001600560006101000a81548160ff0219169083151502179055507f62e78cea01bee320cd4e420270b5ea74000d11b0c9f74754ebdbfc544b05a258611d216111a4565b604051611d2e9190613ebd565b60405180910390a1565b6000611d478360000183612bb2565b60001c905092915050565b8173ffffffffffffffffffffffffffffffffffffffff168373ffffffffffffffffffffffffffffffffffffffff1603611dc0576040517f08c379a0000000000000000000000000000000000000000000000000000000008152600401611db790614d87565b60405180910390fd5b80600360008573ffffffffffffffffffffffffffffffffffffffff1673ffffffffffffffffffffffffffffffffffffffff16815260200190815260200160002060008473ffffffffffffffffffffffffffffffffffffffff1673ffffffffffffffffffffffffffffffffffffffff16815260200190815260200160002060006101000a81548160ff0219169083151502179055508173ffffffffffffffffffffffffffffffffffffffff168373ffffffffffffffffffffffffffffffffffffffff167f17307eab39ab6107e8899845ad3d59bd9653f200f220920489ca2b5937696c3183604051611eb1919061331d565b60405180910390a3505050565b6000611ecc82600001612bdd565b9050919050565b600073ffffffffffffffffffffffffffffffffffffffff168473ffffffffffffffffffffffffffffffffffffffff1603611f42576040517f08c379a0000000000000000000000000000000000000000000000000000000008152600401611f39906148ad565b60405180910390fd5b6000611f4c6111a4565b90506000611f5985612917565b90506000611f6685612917565b9050611f76838989858589612433565b60006002600088815260200190815260200160002060008a73ffffffffffffffffffffffffffffffffffffffff1673ffffffffffffffffffffffffffffffffffffffff1681526020019081526020016000205490508581101561200e576040517f08c379a00000000000000000000000000000000000000000000000000000000081526004016120059061493f565b60405180910390fd5b8581036002600089815260200190815260200160002060008b73ffffffffffffffffffffffffffffffffffffffff1673ffffffffffffffffffffffffffffffffffffffff16815260200190815260200160002081905550856002600089815260200190815260200160002060008a73ffffffffffffffffffffffffffffffffffffffff1673ffffffffffffffffffffffffffffffffffffffff16815260200190815260200160002060008282546120c591906147d0565b925050819055508773ffffffffffffffffffffffffffffffffffffffff168973ffffffffffffffffffffffffffffffffffffffff168573ffffffffffffffffffffffffffffffffffffffff167fc3d58168c5ae7397731d063d5bbf3d657854427343f4c083240f7aacaa2d0f628a8a604051612142929190614bc8565b60405180910390a4612158848a8a86868a612449565b612166848a8a8a8a8a612991565b505050505050505050565b600073ffffffffffffffffffffffffffffffffffffffff168373ffffffffffffffffffffffffffffffffffffffff16036121e0576040517f08c379a00000000000000000000000000000000000000000000000000000000081526004016121d790614c63565b60405180910390fd5b60006121ea6111a4565b905060006121f784612917565b9050600061220484612917565b905061222483876000858560405180602001604052806000815250612433565b60006002600087815260200190815260200160002060008873ffffffffffffffffffffffffffffffffffffffff1673ffffffffffffffffffffffffffffffffffffffff168152602001908152602001600020549050848110156122bc576040517f08c379a00000000000000000000000000000000000000000000000000000000081526004016122b390614cf5565b60405180910390fd5b8481036002600088815260200190815260200160002060008973ffffffffffffffffffffffffffffffffffffffff1673ffffffffffffffffffffffffffffffffffffffff16815260200190815260200160002081905550600073ffffffffffffffffffffffffffffffffffffffff168773ffffffffffffffffffffffffffffffffffffffff168573ffffffffffffffffffffffffffffffffffffffff167fc3d58168c5ae7397731d063d5bbf3d657854427343f4c083240f7aacaa2d0f62898960405161238a929190614bc8565b60405180910390a46123b084886000868660405180602001604052806000815250612449565b50505050505050565b60007f5a05180f000000000000000000000000000000000000000000000000000000007bffffffffffffffffffffffffffffffffffffffffffffffffffffffff1916827bffffffffffffffffffffffffffffffffffffffffffffffffffffffff1916148061242c575061242b82612bee565b5b9050919050565b612441868686868686612c68565b505050505050565b505050505050565b6124708473ffffffffffffffffffffffffffffffffffffffff16612cc6565b15612620578373ffffffffffffffffffffffffffffffffffffffff1663bc197c8187878686866040518663ffffffff1660e01b81526004016124b6959493929190614dfc565b6020604051808303816000875af19250505080156124f257506040513d601f19601f820116820180604052508101906124ef9190614e79565b60015b612597576124fe614eb3565b806308c379a00361255a5750612512614ed5565b8061251d575061255c565b806040517f08c379a000000000000000000000000000000000000000000000000000000000815260040161255191906133f5565b60405180910390fd5b505b6040517f08c379a000000000000000000000000000000000000000000000000000000000815260040161258e90614fd7565b60405180910390fd5b63bc197c8160e01b7bffffffffffffffffffffffffffffffffffffffffffffffffffffffff1916817bffffffffffffffffffffffffffffffffffffffffffffffffffffffff19161461261e576040517f08c379a000000000000000000000000000000000000000000000000000000000815260040161261590615069565b60405180910390fd5b505b505050505050565b6126328282610d48565b6126a95761263f81612ce9565b61264d8360001c6020612d16565b60405160200161265e929190615121565b6040516020818303038152906040526040517f08c379a00000000000000000000000000000000000000000000000000000000081526004016126a091906133f5565b60405180910390fd5b5050565b6126b78282610d48565b61278957600160008084815260200190815260200160002060000160008373ffffffffffffffffffffffffffffffffffffffff1673ffffffffffffffffffffffffffffffffffffffff16815260200190815260200160002060006101000a81548160ff02191690831515021790555061272e6111a4565b73ffffffffffffffffffffffffffffffffffffffff168173ffffffffffffffffffffffffffffffffffffffff16837f2f8788117e7eff1d82e926ec794901d17c78024a50270940304540a733656f0d60405160405180910390a45b5050565b60006127b5836000018373ffffffffffffffffffffffffffffffffffffffff1660001b612f52565b905092915050565b6127c78282610d48565b1561289a57600080600084815260200190815260200160002060000160008373ffffffffffffffffffffffffffffffffffffffff1673ffffffffffffffffffffffffffffffffffffffff16815260200190815260200160002060006101000a81548160ff02191690831515021790555061283f6111a4565b73ffffffffffffffffffffffffffffffffffffffff168173ffffffffffffffffffffffffffffffffffffffff16837ff6391f5c32d9c69d2a47ea670b442974b53935d1edc7fd64eb21e047a839171b60405160405180910390a45b5050565b60006128c6836000018373ffffffffffffffffffffffffffffffffffffffff1660001b612fc2565b905092915050565b6128d6610b55565b612915576040517f08c379a000000000000000000000000000000000000000000000000000000000815260040161290c906151a7565b60405180910390fd5b565b60606000600167ffffffffffffffff8111156129365761293561341c565b5b6040519080825280602002602001820160405280156129645781602001602082028036833780820191505090505b509050828160008151811061297c5761297b614511565b5b60200260200101818152505080915050919050565b6129b08473ffffffffffffffffffffffffffffffffffffffff16612cc6565b15612b60578373ffffffffffffffffffffffffffffffffffffffff1663f23a6e6187878686866040518663ffffffff1660e01b81526004016129f69594939291906151c7565b6020604051808303816000875af1925050508015612a3257506040513d601f19601f82011682018060405250810190612a2f9190614e79565b60015b612ad757612a3e614eb3565b806308c379a003612a9a5750612a52614ed5565b80612a5d5750612a9c565b806040517f08c379a0000000000000000000000000000000000000000000000000000000008152600401612a9191906133f5565b60405180910390fd5b505b6040517f08c379a0000000000000000000000000000000000000000000000000000000008152600401612ace90614fd7565b60405180910390fd5b63f23a6e6160e01b7bffffffffffffffffffffffffffffffffffffffffffffffffffffffff1916817bffffffffffffffffffffffffffffffffffffffffffffffffffffffff191614612b5e576040517f08c379a0000000000000000000000000000000000000000000000000000000008152600401612b5590615069565b60405180910390fd5b505b505050505050565b612b70610b55565b15612bb0576040517f08c379a0000000000000000000000000000000000000000000000000000000008152600401612ba79061526d565b60405180910390fd5b565b6000826000018281548110612bca57612bc9614511565b5b9060005260206000200154905092915050565b600081600001805490509050919050565b60007f7965db0b000000000000000000000000000000000000000000000000000000007bffffffffffffffffffffffffffffffffffffffffffffffffffffffff1916827bffffffffffffffffffffffffffffffffffffffffffffffffffffffff19161480612c615750612c60826130d6565b5b9050919050565b612c76868686868686613140565b612c7e610b55565b15612cbe576040517f08c379a0000000000000000000000000000000000000000000000000000000008152600401612cb5906152ff565b60405180910390fd5b505050505050565b6000808273ffffffffffffffffffffffffffffffffffffffff163b119050919050565b6060612d0f8273ffffffffffffffffffffffffffffffffffffffff16601460ff16612d16565b9050919050565b606060006002836002612d2991906144cf565b612d3391906147d0565b67ffffffffffffffff811115612d4c57612d4b61341c565b5b6040519080825280601f01601f191660200182016040528015612d7e5781602001600182028036833780820191505090505b5090507f300000000000000000000000000000000000000000000000000000000000000081600081518110612db657612db5614511565b5b60200101907effffffffffffffffffffffffffffffffffffffffffffffffffffffffffffff1916908160001a9053507f780000000000000000000000000000000000000000000000000000000000000081600181518110612e1a57612e19614511565b5b60200101907effffffffffffffffffffffffffffffffffffffffffffffffffffffffffffff1916908160001a90535060006001846002612e5a91906144cf565b612e6491906147d0565b90505b6001811115612f04577f3031323334353637383961626364656600000000000000000000000000000000600f861660108110612ea657612ea5614511565b5b1a60f81b828281518110612ebd57612ebc614511565b5b60200101907effffffffffffffffffffffffffffffffffffffffffffffffffffffffffffff1916908160001a905350600485901c945080612efd9061531f565b9050612e67565b5060008414612f48576040517f08c379a0000000000000000000000000000000000000000000000000000000008152600401612f3f90615394565b60405180910390fd5b8091505092915050565b6000612f5e8383613148565b612fb7578260000182908060018154018082558091505060019003906000526020600020016000909190919091505582600001805490508360010160008481526020019081526020016000208190555060019050612fbc565b600090505b92915050565b600080836001016000848152602001908152602001600020549050600081146130ca576000600182612ff491906153b4565b905060006001866000018054905061300c91906153b4565b905081811461307b57600086600001828154811061302d5761302c614511565b5b906000526020600020015490508087600001848154811061305157613050614511565b5b90600052602060002001819055508387600101600083815260200190815260200160002081905550505b8560000180548061308f5761308e6153e8565b5b6001900381819060005260206000200160009055905585600101600086815260200190815260200160002060009055600193505050506130d0565b60009150505b92915050565b60007f01ffc9a7000000000000000000000000000000000000000000000000000000007bffffffffffffffffffffffffffffffffffffffffffffffffffffffff1916827bffffffffffffffffffffffffffffffffffffffffffffffffffffffff1916149050919050565b505050505050565b600080836001016000848152602001908152602001600020541415905092915050565b6000604051905090565b600080fd5b600080fd5b600073ffffffffffffffffffffffffffffffffffffffff82169050919050565b60006131aa8261317f565b9050919050565b6131ba8161319f565b81146131c557600080fd5b50565b6000813590506131d7816131b1565b92915050565b6000819050919050565b6131f0816131dd565b81146131fb57600080fd5b50565b60008135905061320d816131e7565b92915050565b6000806040838503121561322a57613229613175565b5b6000613238858286016131c8565b9250506020613249858286016131fe565b9150509250929050565b61325c816131dd565b82525050565b60006020820190506132776000830184613253565b92915050565b60007fffffffff0000000000000000000000000000000000000000000000000000000082169050919050565b6132b28161327d565b81146132bd57600080fd5b50565b6000813590506132cf816132a9565b92915050565b6000602082840312156132eb576132ea613175565b5b60006132f9848285016132c0565b91505092915050565b60008115159050919050565b61331781613302565b82525050565b6000602082019050613332600083018461330e565b92915050565b60006020828403121561334e5761334d613175565b5b600061335c848285016131fe565b91505092915050565b600081519050919050565b600082825260208201905092915050565b60005b8381101561339f578082015181840152602081019050613384565b60008484015250505050565b6000601f19601f8301169050919050565b60006133c782613365565b6133d18185613370565b93506133e1818560208601613381565b6133ea816133ab565b840191505092915050565b6000602082019050818103600083015261340f81846133bc565b905092915050565b600080fd5b7f4e487b7100000000000000000000000000000000000000000000000000000000600052604160045260246000fd5b613454826133ab565b810181811067ffffffffffffffff821117156134735761347261341c565b5b80604052505050565b600061348661316b565b9050613492828261344b565b919050565b600067ffffffffffffffff8211156134b2576134b161341c565b5b602082029050602081019050919050565b600080fd5b60006134db6134d684613497565b61347c565b905080838252602082019050602084028301858111156134fe576134fd6134c3565b5b835b81811015613527578061351388826131fe565b845260208401935050602081019050613500565b5050509392505050565b600082601f83011261354657613545613417565b5b81356135568482602086016134c8565b91505092915050565b600080fd5b600067ffffffffffffffff82111561357f5761357e61341c565b5b613588826133ab565b9050602081019050919050565b82818337600083830152505050565b60006135b76135b284613564565b61347c565b9050828152602081018484840111156135d3576135d261355f565b5b6135de848285613595565b509392505050565b600082601f8301126135fb576135fa613417565b5b813561360b8482602086016135a4565b91505092915050565b6000806000806080858703121561362e5761362d613175565b5b600061363c878288016131c8565b945050602085013567ffffffffffffffff81111561365d5761365c61317a565b5b61366987828801613531565b935050604085013567ffffffffffffffff81111561368a5761368961317a565b5b61369687828801613531565b925050606085013567ffffffffffffffff8111156136b7576136b661317a565b5b6136c3878288016135e6565b91505092959194509250565b6000819050919050565b6136e2816136cf565b81146136ed57600080fd5b50565b6000813590506136ff816136d9565b92915050565b60006020828403121561371b5761371a613175565b5b6000613729848285016136f0565b91505092915050565b61373b816136cf565b82525050565b60006020820190506137566000830184613732565b92915050565b600080600080600060a0868803121561377857613777613175565b5b6000613786888289016131c8565b9550506020613797888289016131c8565b945050604086013567ffffffffffffffff8111156137b8576137b761317a565b5b6137c488828901613531565b935050606086013567ffffffffffffffff8111156137e5576137e461317a565b5b6137f188828901613531565b925050608086013567ffffffffffffffff8111156138125761381161317a565b5b61381e888289016135e6565b9150509295509295909350565b6000806040838503121561384257613841613175565b5b6000613850858286016136f0565b9250506020613861858286016131c8565b9150509250929050565b600067ffffffffffffffff8211156138865761388561341c565b5b602082029050602081019050919050565b600067ffffffffffffffff8211156138b2576138b161341c565b5b6138bb826133ab565b9050602081019050919050565b60006138db6138d684613897565b61347c565b9050828152602081018484840111156138f7576138f661355f565b5b613902848285613595565b509392505050565b600082601f83011261391f5761391e613417565b5b813561392f8482602086016138c8565b91505092915050565b600061394b6139468461386b565b61347c565b9050808382526020820190506020840283018581111561396e5761396d6134c3565b5b835b818110156139b557803567ffffffffffffffff81111561399357613992613417565b5b8086016139a0898261390a565b85526020850194505050602081019050613970565b5050509392505050565b600082601f8301126139d4576139d3613417565b5b81356139e4848260208601613938565b91505092915050565b600080600080600060a08688031215613a0957613a08613175565b5b6000613a17888289016131c8565b9550506020613a28888289016131fe565b9450506040613a39888289016131fe565b935050606086013567ffffffffffffffff811115613a5a57613a5961317a565b5b613a66888289016139bf565b925050608086013567ffffffffffffffff811115613a8757613a8661317a565b5b613a93888289016135e6565b9150509295509295909350565b600067ffffffffffffffff821115613abb57613aba61341c565b5b602082029050602081019050919050565b6000613adf613ada84613aa0565b61347c565b90508083825260208201905060208402830185811115613b0257613b016134c3565b5b835b81811015613b2b5780613b1788826131c8565b845260208401935050602081019050613b04565b5050509392505050565b600082601f830112613b4a57613b49613417565b5b8135613b5a848260208601613acc565b91505092915050565b60008060408385031215613b7a57613b79613175565b5b600083013567ffffffffffffffff811115613b9857613b9761317a565b5b613ba485828601613b35565b925050602083013567ffffffffffffffff811115613bc557613bc461317a565b5b613bd185828601613531565b9150509250929050565b600081519050919050565b600082825260208201905092915050565b6000819050602082019050919050565b613c10816131dd565b82525050565b6000613c228383613c07565b60208301905092915050565b6000602082019050919050565b6000613c4682613bdb565b613c508185613be6565b9350613c5b83613bf7565b8060005b83811015613c8c578151613c738882613c16565b9750613c7e83613c2e565b925050600181019050613c5f565b5085935050505092915050565b60006020820190508181036000830152613cb38184613c3b565b905092915050565b600060208284031215613cd157613cd0613175565b5b600082013567ffffffffffffffff811115613cef57613cee61317a565b5b613cfb8482850161390a565b91505092915050565b600080600060608486031215613d1d57613d1c613175565b5b6000613d2b868287016131c8565b935050602084013567ffffffffffffffff811115613d4c57613d4b61317a565b5b613d5886828701613531565b925050604084013567ffffffffffffffff811115613d7957613d7861317a565b5b613d8586828701613531565b9150509250925092565b60008060008060808587031215613da957613da8613175565b5b6000613db7878288016131c8565b9450506020613dc8878288016131fe565b9350506040613dd9878288016131fe565b925050606085013567ffffffffffffffff811115613dfa57613df961317a565b5b613e06878288016135e6565b91505092959194509250565b60008060408385031215613e2957613e28613175565b5b6000613e37858286016131fe565b925050602083013567ffffffffffffffff811115613e5857613e5761317a565b5b613e648582860161390a565b9150509250929050565b60008060408385031215613e8557613e84613175565b5b6000613e93858286016136f0565b9250506020613ea4858286016131fe565b9150509250929050565b613eb78161319f565b82525050565b6000602082019050613ed26000830184613eae565b92915050565b613ee181613302565b8114613eec57600080fd5b50565b600081359050613efe81613ed8565b92915050565b60008060408385031215613f1b57613f1a613175565b5b6000613f29858286016131c8565b9250506020613f3a85828601613eef565b9150509250929050565b60008060408385031215613f5b57613f5a613175565b5b6000613f69858286016131c8565b9250506020613f7a858286016131c8565b9150509250929050565b600080600080600060a08688031215613fa057613f9f613175565b5b6000613fae888289016131c8565b9550506020613fbf888289016131c8565b9450506040613fd0888289016131fe565b9350506060613fe1888289016131fe565b925050608086013567ffffffffffffffff8111156140025761400161317a565b5b61400e888289016135e6565b9150509295509295909350565b60008060006060848603121561403457614033613175565b5b6000614042868287016131c8565b9350506020614053868287016131fe565b9250506040614064868287016131fe565b9150509250925092565b7f455243313135353a2061646472657373207a65726f206973206e6f742061207660008201527f616c6964206f776e657200000000000000000000000000000000000000000000602082015250565b60006140ca602a83613370565b91506140d58261406e565b604082019050919050565b600060208201905081810360008301526140f9816140bd565b9050919050565b7f4e487b7100000000000000000000000000000000000000000000000000000000600052602260045260246000fd5b6000600282049050600182168061414757607f821691505b60208210810361415a57614159614100565b5b50919050565b600081905092915050565b60008190508160005260206000209050919050565b6000815461418d8161412f565b6141978186614160565b945060018216600081146141b257600181146141c7576141fa565b60ff19831686528115158202860193506141fa565b6141d08561416b565b60005b838110156141f2578154818901526001820191506020810190506141d3565b838801955050505b50505092915050565b600061420e82613365565b6142188185614160565b9350614228818560208601613381565b80840191505092915050565b60006142408285614180565b915061424c8284614203565b91508190509392505050565b7f455243313135355072657365744d696e7465725061757365723a206d7573742060008201527f68617665206d696e74657220726f6c6520746f206d696e740000000000000000602082015250565b60006142b4603883613370565b91506142bf82614258565b604082019050919050565b600060208201905081810360008301526142e3816142a7565b9050919050565b7f455243313135353a2063616c6c6572206973206e6f7420746f6b656e206f776e60008201527f6572206f7220617070726f766564000000000000000000000000000000000000602082015250565b6000614346602e83613370565b9150614351826142ea565b604082019050919050565b6000602082019050818103600083015261437581614339565b9050919050565b7f416363657373436f6e74726f6c3a2063616e206f6e6c792072656e6f756e636560008201527f20726f6c657320666f722073656c660000000000000000000000000000000000602082015250565b60006143d8602f83613370565b91506143e38261437c565b604082019050919050565b60006020820190508181036000830152614407816143cb565b9050919050565b7f455243313135355072657365744d696e7465725061757365723a206d7573742060008201527f686176652070617573657220726f6c6520746f20756e70617573650000000000602082015250565b600061446a603b83613370565b91506144758261440e565b604082019050919050565b600060208201905081810360008301526144998161445d565b9050919050565b7f4e487b7100000000000000000000000000000000000000000000000000000000600052601160045260246000fd5b60006144da826131dd565b91506144e5836131dd565b92508282026144f3816131dd565b9150828204841483151761450a576145096144a0565b5b5092915050565b7f4e487b7100000000000000000000000000000000000000000000000000000000600052603260045260246000fd5b600061454b826131dd565b91507fffffffffffffffffffffffffffffffffffffffffffffffffffffffffffffffff820361457d5761457c6144a0565b5b600182019050919050565b7f455243313135353a206163636f756e747320616e6420696473206c656e67746860008201527f206d69736d617463680000000000000000000000000000000000000000000000602082015250565b60006145e4602983613370565b91506145ef82614588565b604082019050919050565b60006020820190508181036000830152614613816145d7565b9050919050565b7f455243313135355072657365744d696e7465725061757365723a206d7573742060008201527f686176652070617573657220726f6c6520746f20706175736500000000000000602082015250565b6000614676603983613370565b91506146818261461a565b604082019050919050565b600060208201905081810360008301526146a581614669565b9050919050565b7f455243313135353a206d696e7420746f20746865207a65726f2061646472657360008201527f7300000000000000000000000000000000000000000000000000000000000000602082015250565b6000614708602183613370565b9150614713826146ac565b604082019050919050565b60006020820190508181036000830152614737816146fb565b9050919050565b7f455243313135353a2069647320616e6420616d6f756e7473206c656e6774682060008201527f6d69736d61746368000000000000000000000000000000000000000000000000602082015250565b600061479a602883613370565b91506147a58261473e565b604082019050919050565b600060208201905081810360008301526147c98161478d565b9050919050565b60006147db826131dd565b91506147e6836131dd565b92508282019050808211156147fe576147fd6144a0565b5b92915050565b6000604082019050818103600083015261481e8185613c3b565b905081810360208301526148328184613c3b565b90509392505050565b7f455243313135353a207472616e7366657220746f20746865207a65726f20616460008201527f6472657373000000000000000000000000000000000000000000000000000000602082015250565b6000614897602583613370565b91506148a28261483b565b604082019050919050565b600060208201905081810360008301526148c68161488a565b9050919050565b7f455243313135353a20696e73756666696369656e742062616c616e636520666f60008201527f72207472616e7366657200000000000000000000000000000000000000000000602082015250565b6000614929602a83613370565b9150614934826148cd565b604082019050919050565b600060208201905081810360008301526149588161491c565b9050919050565b60006020601f8301049050919050565b600082821b905092915050565b6000600883026149ac7fffffffffffffffffffffffffffffffffffffffffffffffffffffffffffffffff8261496f565b6149b6868361496f565b95508019841693508086168417925050509392505050565b6000819050919050565b60006149f36149ee6149e9846131dd565b6149ce565b6131dd565b9050919050565b6000819050919050565b614a0d836149d8565b614a21614a19826149fa565b84845461497c565b825550505050565b600090565b614a36614a29565b614a41818484614a04565b505050565b5b81811015614a6557614a5a600082614a2e565b600181019050614a47565b5050565b601f821115614aaa57614a7b8161416b565b614a848461495f565b81016020851015614a93578190505b614aa7614a9f8561495f565b830182614a46565b50505b505050565b600082821c905092915050565b6000614acd60001984600802614aaf565b1980831691505092915050565b6000614ae68383614abc565b9150826002028217905092915050565b614aff82613365565b67ffffffffffffffff811115614b1857614b1761341c565b5b614b22825461412f565b614b2d828285614a69565b600060209050601f831160018114614b605760008415614b4e578287015190505b614b588582614ada565b865550614bc0565b601f198416614b6e8661416b565b60005b82811015614b9657848901518255600182019150602085019450602081019050614b71565b86831015614bb35784890151614baf601f891682614abc565b8355505b6001600288020188555050505b505050505050565b6000604082019050614bdd6000830185613253565b614bea6020830184613253565b9392505050565b7f455243313135353a206275726e2066726f6d20746865207a65726f206164647260008201527f6573730000000000000000000000000000000000000000000000000000000000602082015250565b6000614c4d602383613370565b9150614c5882614bf1565b604082019050919050565b60006020820190508181036000830152614c7c81614c40565b9050919050565b7f455243313135353a206275726e20616d6f756e7420657863656564732062616c60008201527f616e636500000000000000000000000000000000000000000000000000000000602082015250565b6000614cdf602483613370565b9150614cea82614c83565b604082019050919050565b60006020820190508181036000830152614d0e81614cd2565b9050919050565b7f455243313135353a2073657474696e6720617070726f76616c2073746174757360008201527f20666f722073656c660000000000000000000000000000000000000000000000602082015250565b6000614d71602983613370565b9150614d7c82614d15565b604082019050919050565b60006020820190508181036000830152614da081614d64565b9050919050565b600081519050919050565b600082825260208201905092915050565b6000614dce82614da7565b614dd88185614db2565b9350614de8818560208601613381565b614df1816133ab565b840191505092915050565b600060a082019050614e116000830188613eae565b614e1e6020830187613eae565b8181036040830152614e308186613c3b565b90508181036060830152614e448185613c3b565b90508181036080830152614e588184614dc3565b90509695505050505050565b600081519050614e73816132a9565b92915050565b600060208284031215614e8f57614e8e613175565b5b6000614e9d84828501614e64565b91505092915050565b60008160e01c9050919050565b600060033d1115614ed25760046000803e614ecf600051614ea6565b90505b90565b600060443d10614f6257614ee761316b565b60043d036004823e80513d602482011167ffffffffffffffff82111715614f0f575050614f62565b808201805167ffffffffffffffff811115614f2d5750505050614f62565b80602083010160043d038501811115614f4a575050505050614f62565b614f598260200185018661344b565b82955050505050505b90565b7f455243313135353a207472616e7366657220746f206e6f6e2d4552433131353560008201527f526563656976657220696d706c656d656e746572000000000000000000000000602082015250565b6000614fc1603483613370565b9150614fcc82614f65565b604082019050919050565b60006020820190508181036000830152614ff081614fb4565b9050919050565b7f455243313135353a204552433131353552656365697665722072656a6563746560008201527f6420746f6b656e73000000000000000000000000000000000000000000000000602082015250565b6000615053602883613370565b915061505e82614ff7565b604082019050919050565b6000602082019050818103600083015261508281615046565b9050919050565b7f416363657373436f6e74726f6c3a206163636f756e7420000000000000000000600082015250565b60006150bf601783614160565b91506150ca82615089565b601782019050919050565b7f206973206d697373696e6720726f6c6520000000000000000000000000000000600082015250565b600061510b601183614160565b9150615116826150d5565b601182019050919050565b600061512c826150b2565b91506151388285614203565b9150615143826150fe565b915061514f8284614203565b91508190509392505050565b7f5061757361626c653a206e6f7420706175736564000000000000000000000000600082015250565b6000615191601483613370565b915061519c8261515b565b602082019050919050565b600060208201905081810360008301526151c081615184565b9050919050565b600060a0820190506151dc6000830188613eae565b6151e96020830187613eae565b6151f66040830186613253565b6152036060830185613253565b81810360808301526152158184614dc3565b90509695505050505050565b7f5061757361626c653a2070617573656400000000000000000000000000000000600082015250565b6000615257601083613370565b915061526282615221565b602082019050919050565b600060208201905081810360008301526152868161524a565b9050919050565b7f455243313135355061757361626c653a20746f6b656e207472616e736665722060008201527f7768696c65207061757365640000000000000000000000000000000000000000602082015250565b60006152e9602c83613370565b91506152f48261528d565b604082019050919050565b60006020820190508181036000830152615318816152dc565b9050919050565b600061532a826131dd565b91506000820361533d5761533c6144a0565b5b600182039050919050565b7f537472696e67733a20686578206c656e67746820696e73756666696369656e74600082015250565b600061537e602083613370565b915061538982615348565b602082019050919050565b600060208201905081810360008301526153ad81615371565b9050919050565b60006153bf826131dd565b91506153ca836131dd565b92508282039050818111156153e2576153e16144a0565b5b92915050565b7f4e487b7100000000000000000000000000000000000000000000000000000000600052603160045260246000fdfea26469706673582212208db12526a03ae301c61520a52b08ac4f082a2c0287c84b143096b7e39cfefc9664736f6c6343000813003368747470733a2f2f63366238653731383063336334326462373538393733353539616437663530642e6970667363646e2e696f2f697066732f",
  "linkReferences": {},
  "deployedLinkReferences": {}
}